:020000040800F2
:1000000000300020492900084D0700084F0700086C
:1000100051070008530700085507000800000000BA
:10002000000000000000000000000000570700086A
:1000300059070008000000005B0700085D07000882
:100040009929000899290008992900089929000888
:100050009929000899290008992900089929000878
:100060009929000899290008992900089929000868
:100070009929000899290008992900089929000858
:100080009929000899290008992900089929000848
:100090009929000899290008992900089929000838
:1000A0009929000899290008992900089929000828
:1000B00099290008992900080000000099290008E2
:1000C000992900080000000000000000992900089C
:1000D00000000000992900089929000899290008C2
:1000E000992900089929000800000000000000007C
:1000F0000000000000000000000000000000000000
:1001000000000000000000000000000000000000EF
:10011000000000000000000099290008992900084B
:1001200000000000000000000000000000000000CF
:1001300000000000000000000000000000000000BF
:10014000992900089929000800000000000000001B
:10015000000000000000000000000000000000009F
:10016000000000000000000000000000000000008F
:10017000000000000000000000000000000000007F
:080180000000000099290008AD
:1001880010B5054C237833B9044B13B10448AFF3C9
:1001980000800123237010BD0C0000200000000027
:1001A800F429000808B5034B1BB103490348AFF312
:1001B800008008BD0000000010000020F42900089D
:1001C80072B6FEE700B597B0282200210CA802F00D
:1001D80005FC00230793089309930A930B93019353
:1001E8000293039304930593069302230C9301222D
:1001F80010921022119213934FF4002315930CA818
:1002080000F0BEFED0B90F23079302230893002104
:1002180009910A910B9107A801F004FA80B94FF4EB
:10022800845301934FF4807305930023069301A828
:1002380001F0FEFA30B917B05DF804FBFFF7C0FF14
:10024800FFF7BEFFFFF7BCFF10B500F061FEFFF738
:10025800B9FF00F02DF800F025FA00F07DF800F065
:10026800C1F800F09BF90021104802F055F808B1D8
:10027800FFF7A6FF08210D4802F04EF8A0B90B4B76
:100288001B680022DA63094C236864225A634FF41E
:10029800FA7000F061FE236840F2E7325A634FF4C7
:1002A800FA7000F059FEEEE7FFF78AFFCC00002055
:1002B80070B588B0002403940494059406940794B8
:1002C800234B5A6942F480025A615A6902F4800247
:1002D8000092009A5A6942F400325A615A6902F44B
:1002E80000320192019A5A6942F480225A615B698C
:1002F80003F480230293029B22464FF4D0514FF01F
:10030800904001F039FC134D2246F021284601F0B7
:1003180033FC4FF4D05303930126049605940694B6
:1003280003A94FF0904001F049FB0823039304947C
:10033800059403A9284601F041FBF0230393049692
:100348000594069403A9284601F038FB08B070BD4F
:10035800001002400004004800B58BB0002307934A
:1003680008930993019302930393049305930693C7
:100378001B484FF0A04202604360836003614376EC
:1003880080F82030C36201228262C360C26180F8B3
:100398003030042242610376436300F03BFAB0B97F
:1003A8000023079307A90E4800F000FD90B9012328
:1003B800019302930493002303930593069301A9E1
:1003C800074800F031FB40B90BB05DF804FBFFF7BC
:1003D800F7FEE5E7FFF7F4FEE9E7FFF7F1FEF3E7DD
:1003E8002C00002000B587B00023009301930293EE
:1003F8000393049305931648164A0260436083608A
:100408000361437680F82030C36201228262C360B0
:10041800C26180F83030042242610376436300F001
:10042800F9F978B901230093019303930023029308
:10043800049305936946064800F0F6FA28B907B010
:100448005DF804FBFFF7BCFEECE7FFF7B9FEF6E743
:100458007C0000200001005000B58BB000230593FC
:1004680006930793089309930368B3F1A04F05D047
:10047800274A934226D00BB05DF804FB254A13683F
:1004880001331360012B12D0234B5A6942F4003216
:100498005A615B6903F400330293029B03230593BB
:1004A800069305A94FF0904001F088FAE3E71A4B4C
:1004B8005A6942F080525A615B6903F08053019394
:1004C800019BE1E7134A136801331360012B13D032
:1004D800114B5A6942F400325A615B6903F40033E4
:1004E8000493049BF02305930323069305A94FF077
:1004F800904001F063FABEE7074B5A6942F0805218
:100508005A615B6903F080530393039BE0E700BFE4
:100518000001005028000020001002400268094B2A
:100528009A4200D0704782B003F564439A6942F456
:1005380000629A619B6903F400630193019B02B016
:10054800704700BF002C014000B587B0002301931D
:10055800029303930493059302680F4B9A4202D0C7
:1005680007B05DF804FB03F564435A6942F40032AE
:100578005A615B6903F400330093009B4FF4A06356
:100588000193022302930623059301A94FF090409B
:1005980001F014FAE4E700BF002C014010B59AB04E
:1005A8000024169417941894199413941494159479
:1005B8000C940D940E940F941094119412942C2270
:1005C800214601A802F00AFA3448354B036044601A
:1005D800846040F2E733C36004614461846101F0E0
:1005E800C1FC002845D14FF48053169316A92B4817
:1005F80001F002FE00283FD1284801F0E3FC002862
:100608003DD1002313931493159313A9234801F0A4
:1006180023FF002836D160230C9300220D920E92FE
:100628000F921092119212920CA91C4801F03AFDF7
:1006380058BB08220CA9194801F034FD40BB00231F
:10064800019302930393049305934FF40052069287
:10065800079308934FF0007209920A930B9301A92C
:100668000E4801F035FFB0B90C48FFF76DFF1AB01E
:1006780010BDFFF7A5FDB6E7FFF7A2FDBCE7FFF742
:100688009FFDBEE7FFF79CFDC5E7FFF799FDD0E7A3
:10069800FFF796FDD3E7FFF793FDE5E7CC000020D1
:1006A800002C014008B50B480B4B03604FF4164370
:1006B800436000238360C36003610C22426183614D
:1006C800C3610362436202F000F900B908BDFFF795
:1006D80077FDFBE7180100200044004000B589B011
:1006E8000023039304930593069307930268144B1E
:1006F8009A4202D009B05DF804FB03F5E633DA69E3
:1007080042F40032DA61DA6902F400320192019AA5
:100718005A6942F400325A615B6903F40033029368
:10072800029B48F2040303930223049303230693D2
:100738000723079303A94FF0904001F03FF9D9E749
:1007480000440040FEE7FEE7FEE7FEE7FEE77047ED
:100758007047704708B500F0EDFB08BD82B00A4B42
:100768009A6942F001029A619A6902F001020092C4
:10077800009ADA6942F08052DA61DB6903F080534B
:100788000193019B02B070470010024038B502681F
:10079800936803F00303012B01D0002038BD044601
:1007A800136813F0010F33D0936803F00D03012B86
:1007B80009D0036C43F010030364436C43F0010356
:1007C80043640120EAE7936843F0020393600368F7
:1007D80003221A6000F0BAFB054623689B6813F0F1
:1007E800010F13D000F0B2FB401B0228F5D9236893
:1007F8009B6813F0010FF0D0236C43F010032364BF
:10080800636C43F0010363640120C7E70020C5E778
:100818000020C3E730B597B000230193002800F00B
:10082800F7800446036C13F0100F52D1036CABB180
:10083800002023689A6812F0805F03D09B6813F049
:10084800005F47D0236C23F0120343F010032364A6
:10085800636C43F00103636401203BE04364C364B9
:10086800836480F83C30FFF7F7FD23689B6813F03A
:10087800805F01D00020DCE72046FFF787FF236C6C
:1008880013F0100FD5D10028D3D1236C23F488534B
:1008980023F0020343F0020323642268936823F0E1
:1008A800405393602268936843F080539360594B98
:1008B8001B68594AA2FB03239B0C03EB83035B00D1
:1008C800019302E0019B013B0193019B002BF9D1AD
:1008D800AFE70020236C13F0100F40F09080002841
:1008E80040F08D802368996811F0040140F08780FA
:1008F800226C22F4817242F002022264B3F1A04F0A
:1009080054D04FF0A04202929A6802F00302012AE2
:100918004FD0029B23B19A6802F00302012A4DD0FE
:100928003E4A936823F4403365682B439360627EA4
:100938005303656B012D01D04FF480510B43E168DF
:100948000B43A1680B4394F8201001293BD0A26AFD
:10095800012A02D0E16A0A4313432268916811F020
:100968000C0F0CD1D16821F4804121F00201D16033
:10097800217E94F83020520042EA813213432168E4
:10098800CD68274A2A401343CB602369012B2DD019
:100998002268136B23F00F03136300236364236C33
:1009A80023F0030343F0010323642FE01D4A02925E
:1009B800AAE71B6813F0010FB9D1AAE71B6813F067
:1009C800010FB4D1ACE732B9626A013A43EA424353
:1009D80043F48033BBE7226C22F0220242F020026B
:1009E8002264626C42F001026264B0E721680B6B1A
:1009F80023F00F03E269013A13430B63CDE7236C3D
:100A080023F0120343F010032364012017B030BD14
:100A18000120FBE70800002083DE1B430003005091
:100A280007C0F0FF0001005030B496B000220192D8
:100A380090F83C20012A00F0AF810346012280F89B
:100A48003C200068826812F0040F40F09A814A68DE
:100A5800042A37D8046B02EB420252004FF01F0CF5
:100A68000CFA02FC24EA0C0C0C6804FA02F24CEAB8
:100A7800020202631868826812F00C0F72D10A68C9
:100A8800092A56D9846902EB42021E3A4FF0070C34
:100A98000CFA02FC24EA0C048D6805FA02F22243DF
:100AA800826148691C68E268C2F3C102520000FA18
:100AB80002F208690138032800F29380DFE800F0A9
:100AC80048707B86092A10D8446B02EB4202520018
:100AD8001E3A4FF01F0C0CFA02FC24EA0C040D68B5
:100AE80005FA02F222434263C4E70E2A10D8846B47
:100AF80002EB420252003C3A4FF01F0C0CFA02FC87
:100B080024EA0C040D6805FA02F222438263B1E775
:100B1800C46B02EB420252005A3A4FF01F0C0CFA17
:100B280002FC24EA0C040D6805FA02F22243C263AF
:100B3800A0E7446902EB42024FF0070C0CFA02FCF2
:100B480024EA0C048D6805FA02F222434261A8E700
:100B5800256E924828400D6842EA8562104340F0AD
:100B6800004020661868826802F00302012A68D0F3
:100B7800CA68012A6BD0D0F8B02001240D68AC40B7
:100B880022EA0402C0F8B0200A68102A00F088801F
:100B9800112A00F0A680122A00F0A9800020F5E0B2
:100BA800656E7E4828400D6842EA8562104340F031
:100BB80000406066D6E7A56E784828400D6842EA8E
:100BC8008562104340F00040A066CBE7E56E7348AD
:100BD80028400D6842EA8562024342F00042E2661C
:100BE800C0E7226E02F0F8420868B2EB806F03D1CA
:100BF800226E22F0004222661A68506E00F0F84019
:100C08000C68B0EB846F03D1506E20F00040506642
:100C18001A68906E00F0F8400C68B0EB846F03D14E
:100C2800906E20F0004090661A68D06E00F0F84090
:100C38000C68B0EB846F95D1D06E20F00040D06680
:100C480090E7026812F0010F92D000209EE0D0F8E1
:100C5800B02001240D68AC402243C0F8B0200A68D7
:100C6800092A0ED91D68A86902EB42021B3A07241B
:100C7800944020EA04008C6804FA02F20243AA6154
:100C880082E71D686869013202EB4202072494403A
:100C980020EA04008C6804FA02F202436A6173E7EE
:100CA8003F49896811F4000F7FF472AF1868B0F1FA
:100CB800A04F23D04FF0A0410291816801F00301B9
:100CC80001291ED0029921B18C6804F00304012C7B
:100CD80021D0102A24D0112A42D0122A4AD000202A
:100CE80054E02F49896811F0807FDFD053E72C4901
:100CF800896811F4800FD9D0002047E02949029172
:100D0800DBE7016811F0010FDCD01A6C42F0200219
:100D18001A6401203AE0096811F0010FF5D1D8E70B
:100D2800B0F1A04FD7D11E498A6842F400028A6008
:100D38001D4A1268A1F14E61A1F58421A1F27D41FD
:100D4800A1FB0212920C02EB82025200019202E015
:100D5800019A013A0192019A002AF9D1002015E07E
:100D6800B0F1A04FB9D10E498A6842F080728A600A
:100D780000200BE00A498A6842F480028A60002059
:100D880004E01A6C42F020021A640120002283F861
:100D98003C2016B030BC70470220FAE700F0FF8311
:100DA80000030050000100500800002030B494B047
:100DB80003460268B2F1A04F3DD04FF0A04000902A
:100DC8000098002876D093F83CC0BCF1010F73D08E
:100DD8004FF0010C83F83CC0926812F0040F5ED10A
:100DE800826812F0040F5AD10A68002A32D0334CB4
:100DF800A26822F4604293F830C04D6845EA4C3C42
:100E080042EA0C02A2601C68A26802F00302012AEE
:100E180014D0826802F00302012A15D0274CA26878
:100E280022F4716222F00F020868896801430A43BC
:100E3800A260002038E022480090C1E7226812F042
:100E4800010FE6D000202FE0026812F0010FE5D074
:100E5800002029E019498A6822F460428A601968EA
:100E68008A6802F00302012A0DD0826802F00302A8
:100E7800012A0ED011498A6822F4716222F00F0209
:100E88008A60002010E00A6812F0010FEDD00020FF
:100E98000AE0026812F0010FECD0002004E01A6C9E
:100EA80042F020021A640120002283F83C2014B08A
:100EB80030BC70470120FAE70220F8E70003005031
:100EC8000001005010B504460E4B18784FF47A73A1
:100ED800B3FBF0F30C4A1068B0FBF3F000F09CFE93
:100EE80068B90F2C01D901200AE0002221464FF0F1
:100EF800FF3000F059FE054B1C60002000E0012087
:100F080010BD00BF000000200800002004000020E1
:100F180008B5074A136843F010031360032000F074
:100F280031FE0020FFF7CEFFFFF718FC002008BDB8
:100F380000200240034A1168034B1B780B441360DE
:100F4800704700BF9C01002000000020014B18687A
:100F5800704700BF9C01002038B50446FFF7F6FF34
:100F68000546B4F1FF3F02D0044B1B781C44FFF741
:100F7800EDFF401BA042FAD338BD00BF000000209F
:100F8800002800F0018370B582B00446036813F0AE
:100F9800010F3BD0B54B5B6803F00C03042B1ED04C
:100FA800B24B5B6803F00C03082B13D06368B3F5EE
:100FB800803F68D0002B40F0928003F1804303F516
:100FC80004331A6822F480321A601A6822F48022E4
:100FD8001A605DE0A54B5B6813F4803FE6D04FF4E0
:100FE800003393FAA3F3A14B19684FF4003393FA33
:100FF800A3F3B3FA83F303F01F03012202FA03F306
:101008000B4203D06368002B00F0C082236813F002
:10101800020F00F0C580954B5B6813F00C0F00F0D1
:101028009C80924B5B6803F00C03082B00F08F80C8
:101038002369002B00F0F280012292FAA2F3B3FA9E
:1010480083F303F1845303F584139B001A60FFF7BD
:101058007DFF0546022393FAA3F3844B1968022304
:1010680093FAA3F3B3FA83F303F01F03012202FAFE
:1010780003F30B4240F0C380FFF768FF401B0228D0
:10108800E8D903208BE2794A136843F4803313606C
:10109800764AD36A23F00F03A1680B43D3626368CF
:1010A800002B36D0FFF752FF05464FF4003393FA72
:1010B800A3F36E4B19684FF4003393FAA3F3B3FA12
:1010C80083F303F01F03012202FA03F30B429DD1BD
:1010D800FFF73CFF401B6428E7D903205FE2B3F524
:1010E800A02F09D0614B1A6822F480321A601A685E
:1010F80022F480221A60CBE703F18043A3F53C3346
:101108001A6842F480221A601A6842F480321A601F
:10111800BEE7FFF71BFF05464FF4003393FAA3F32E
:10112800524B19684FF4003393FAA3F3B3FA83F3DD
:1011380003F01F03012202FA03F30B423FF466AFE8
:10114800FFF704FF401B6428E6D9032027E2474B3A
:101158005B6813F4803F7FF46BAF022393FAA3F329
:10116800424B1968022393FAA3F3B3FA83F303F00B
:101178001F03012202FA03F30B4203D023699342AF
:1011880040F006823948036823F0F8036169F822C1
:1011980092FAA2F2B2FA82F201FA02F2134303605F
:1011A800236813F0080F00F08D80A369002B61D02D
:1011B800012191FAA1F2B2FA82F22D4B13449B005D
:1011C8001960FFF7C3FE0546022393FAA3F293FAC8
:1011D800A3F293FAA3F2254A516A93FAA3F3B3FA56
:1011E80083F303F01F03012202FA03F30B4269D1D0
:1011F800FFF7ACFE401B0228E6D90320CFE11B48CD
:10120800036823F0F8036169F82292FAA2F2B2FAAD
:1012180082F201FA02F213430360C1E7012393FA51
:10122800A3F3B3FA83F303F1845303F584139B0008
:1012380000221A60FFF78AFE0546022393FAA3F3F9
:101248000A4B1968022393FAA3F3B3FA83F303F062
:101258001F03012202FA03F30B42A1D0FFF776FE27
:10126800401B0228E9D9032099E100BF0010024081
:1012780020819010012292FAA2F2B2FA82F2B74BC0
:1012880013449B0000221A60FFF760FE0546022304
:1012980093FAA3F293FAA3F293FAA3F2B04A516A2B
:1012A80093FAA3F3B3FA83F303F01F03012202FABC
:1012B80003F30B4206D0FFF749FE401B0228E6D98C
:1012C80003206CE1236813F0040F00F0A980A44BFD
:1012D800DB6913F0805F20D1A14BDA6942F08052BC
:1012E800DA61DB6903F080530193019B01259D4B73
:1012F8001B6813F4807F12D0E368012B23D073BBE3
:1013080003F1804303F504331A6A22F001021A62DA
:101318001A6A22F004021A621AE00025E7E7914AE5
:10132800136843F480731360FFF710FE06468D4B75
:101338001B6813F4807FDFD1FFF708FE801B642849
:10134800F5D903202BE1864A136A43F0010313629F
:10135800E368002B3CD0FFF7F9FD06462BE0052B90
:1013680009D07F4B1A6A22F001021A621A6A22F027
:1013780004021A62ECE77A4B1A6A42F004021A6213
:101388001A6A42F001021A62E2E7754B196A0223EF
:1013980093FAA3F3B3FA83F303F01F03012202FACB
:1013A80003F319423BD1FFF7D1FD801B41F288338B
:1013B800984200F2EF80022393FAA3F293FAA3F380
:1013C800002BE2D1022393FAA3F3654B596ADEE7B7
:1013D800FFF7BCFD064615E0614B196A022393FA34
:1013E800A3F3B3FA83F303F01F03012202FA03F312
:1013F800194214D0FFF7AAFD801B41F288339842A6
:1014080000F2CA80022393FAA3F293FAA3F3002B03
:10141800E2D1022393FAA3F3514B596ADEE7B5BB35
:10142800E369002B00F0BA804D4A526802F00C02C2
:10143800082A00F09980022B2FD04FF0807393FA7E
:10144800A3F3B3FA83F303F1845303F584139B00E6
:1014580000221A60FFF77AFD04464FF0007393FAF2
:10146800A3F33F4B19684FF0007393FAA3F3B3FA51
:1014780083F303F01F03012202FA03F319426BD02E
:10148800FFF764FD001B0228E7D9032087E0344AF0
:10149800D36923F08053D361C2E74FF0807393FA86
:1014A800A3F3B3FA83F303F1845303F584139B0086
:1014B80000221A60FFF74AFD05464FF0007393FAC1
:1014C800A3F3274B19684FF0007393FAA3F3B3FA09
:1014D80083F303F01F03012202FA03F3194206D033
:1014E800FFF734FD401B0228E7D9032057E01C49C9
:1014F8004B6823F47413626A206A024313434B60F7
:101508004FF0807393FAA3F3B3FA83F303F1845390
:1015180003F584139B0001221A60FFF717FD0446A8
:101528004FF0007393FAA3F30D4B19684FF0007353
:1015380093FAA3F3B3FA83F303F01F03012202FA29
:1015480003F3194206D1FFF701FD001B0228E7D972
:10155800032024E0002022E0002020E020819010D9
:101568000010024000700040012B1AD0104B5B683D
:1015780003F48031226A914215D103F47013626A30
:10158800934212D100200AE001207047012006E0B2
:10159800012004E0032002E0032000E0002002B064
:1015A80070BD0120FBE70120F9E70120F7E700BF44
:1015B80000100240164B5B6803F00C02082A01D0A9
:1015C8001448704703F470114FF4701292FAA2F2A3
:1015D800B2FA82F221FA02F20F49885C0C4AD26A06
:1015E80002F00F020F2191FAA1F1B1FA81F1CA407C
:1015F8000A498A5C13F4803F05D0064BB3FBF2F32B
:1016080003FB00F07047064B03FB00F0704700BF78
:101618000010024000127A000C2A00081C2A000858
:1016280000093D00002800F0BE8070B50D46044654
:10163800614B1B6803F007038B420BD25E4A1368A9
:1016480023F007030B431360136803F007038B426F
:1016580040F0AB80236813F0020F06D0574A536856
:1016680023F0F003A1680B435360236813F0010FC4
:101678005AD06368012B2DD0022B40D0022292FA57
:10168800A2F24E4A1068022292FAA2F2B2FA82F24A
:1016980002F01F02012101FA02F2104200F08780D5
:1016A80046494A6822F0030213434B60FFF74EFC99
:1016B8000646424B5B6803F00C036268B3EB820F8B
:1016C80032D0FFF743FC801B41F288339842F0D9AF
:1016D800032067E04FF4003292FAA2F2374A10680A
:1016E8004FF4003292FAA2F2B2FA82F202F01F022A
:1016F800012101FA02F20242D2D1012052E04FF058
:10170800007292FAA2F22D4A10684FF0007292FA13
:10171800A2F2B2FA82F202F01F02012101FA02F2E9
:101728001042BDD101203DE0234B1B6803F00703A5
:10173800AB420AD9204A136823F007032B431360EE
:10174800136803F00703AB4233D1236813F0040F87
:1017580006D01A4A536823F4E063E1680B435360E8
:10176800236813F0080F07D0144A536823F4605312
:10177800216943EAC1035360FFF71CFF0F4B5B6805
:1017880003F0F003F02292FAA2F2B2FA82F2D34006
:101798000B4AD35CD8400B4B18600B4B1868FFF70B
:1017A80091FB002070BD012070470120FAE701205D
:1017B800F8E70120F6E700BF0020024000100240D1
:1017C8002C2A00080800002004000020014B18689B
:1017D800704700BF0800002008B5FFF7F7FF074B68
:1017E8005B6803F4E0634FF4E06292FAA2F2B2FAA3
:1017F80082F2D340024AD35CD84008BD00100240B0
:101808003C2A000808B5FFF7E1FF074B5B6803F4C3
:1018180060534FF4605292FAA2F2B2FA82F2D340C5
:10182800024AD35CD84008BD001002403C2A000898
:10183800F0B583B00446036813F4803F44D05C4B92
:10184800DB6913F0805F6DD1594BDA6942F0805241
:10185800DA61DB6903F080530193019B0125554B45
:101868001B6813F4807F5FD0514B1B6A13F44073DD
:1018780021D0626802F440729A421CD04C48016A36
:1018880021F440764FF4803393FAA3F2B2FA82F24D
:10189800494F3A4492004FF0010CC2F800C093FA45
:1018A800A3F3B3FA83F33B449B0000221A60066259
:1018B80011F0010F4CD13E4A136A23F4407361685A
:1018C8000B431362002D69D1236813F0010F06D072
:1018D800374A136B23F00303A1680B431363236890
:1018E80013F0200F06D0324A136B23F01003E1687F
:1018F8000B431363236813F0800F06D02C4AD36A76
:1019080023F4F87321690B43D362236813F4805FCF
:101918004BD0274A136B23F4807361690B4313631D
:10192800002043E000259AE7224A136843F48073B5
:101938001360FFF70BFB06461E4B1B6813F4807FF2
:1019480092D1FFF703FB801B6428F5D903202DE013
:10195800FFF7FCFA064614E0154B196A022393FABE
:10196800A3F3B3FA83F303F01F03012202FA03F38C
:101978000B42A0D1FFF7EAFA801B41F28833984264
:1019880011D8022393FAA3F293FAA3F3002BE3D11D
:10199800022393FAA3F3064B596ADFE7D36923F0CE
:1019A8008053D36190E7032000E0002003B0F0BD2E
:1019B800001002400070004000819010F0B583B024
:1019C800002362E085685E000324B44025EA04052C
:1019D800CC68B4402C438460446824EA0C0C4C68FE
:1019E800C4F300149C4044EA0C0444605EE0DD0843
:1019F800083550F8256003F007044FEA840C0F24DB
:101A080004FA0CF426EA040E0C6904FA0CF444EA0D
:101A18000E0440F8254060E0032400E0002404FAA6
:101A28000EF42C430CF1020C4F4D45F82C404F4C52
:101A38002568D44325EA02064F6817F4803F01D091
:101A480042EA0506494D2E606D6804EA05064F68AE
:101A580017F4003F01D042EA0506444D6E60AD68B8
:101A680004EA05064F6817F4801F01D042EA05060C
:101A78003E4DAE60ED682C404E6816F4001F01D054
:101A880042EA0504394AD46001330A6832FA03F499
:101A980068D04FF0010C0CFA03FC1CEA0202F3D0E8
:101AA8004C6804F00304013C012C8BD94C6804F009
:101AB8000304032C0CD0C4685D004FF0030C0CFA2F
:101AC80005FC24EA0C0C8C68AC4044EA0C04C460A5
:101AD8004C6804F00304022C89D004684FEA430ED2
:101AE8004FF0030C0CFA0EFC24EA0C0C4C6804F0C2
:101AF800030404FA0EF444EA0C0404604C6814F479
:101B0800403FC1D01A4CA56945F00105A561A469FB
:101B180004F001040194019C4FEA930C0CF10205B6
:101B2800114C54F8255003F003044FEA840E0F2497
:101B380004FA0EF425EA0405B0F1904F3FF46EAFB5
:101B48000C4CA0420AD004F58064A04208D004F5E9
:101B58008064A0423FF460AF052460E701245EE79B
:101B680002245CE703B0F0BD00000140000401401E
:101B780000100240000400480AB181617047816288
:101B880070470000074AD36823F4E0631B041B0C6A
:101B9800000200F4E060034343F0BF6343F4003302
:101BA800D360704700ED00E000B5194BDB68C3F364
:101BB8000223C3F1070CBCF1040F28BF4FF0040C3B
:101BC80003F1040EBEF1060F18D9033B4FF0FF3E98
:101BD8000EFA0CFC21EA0C0199400EFA03F322EAF2
:101BE8000303194300280BDB0901C9B200F1604067
:101BF80000F5614080F800135DF804FB0023E5E779
:101C080000F00F000901C9B2024B1954F4E700BFF4
:101C180000ED00E014ED00E00138B0F1807F0BD258
:101C28004FF0E0235861054AF02182F82310002084
:101C3800986107221A6170470120704700ED00E0A3
:101C480030B4036A23F001030362036A45688269BA
:101C580022F4803222F073020C68224323F002033C
:101C68008C682343194CA0420BD004F5A054A04221
:101C780007D004F58064A04203D004F58064A04234
:101C880005D123F00803CC68234323F004030F4C49
:101C9800A0420BD004F5A054A04207D004F58064FC
:101CA800A04203D004F58064A04207D125F4407C0B
:101CB8004C6944EA0C0C8D6945EA0C054560826163
:101CC8004A684263036230BC704700BF002C014081
:101CD80030B4036A23F480730362036A4468C269F8
:101CE80022F4803222F073020D682A4323F4007331
:101CF8008D6843EA0523144DA8421DD0124DA84211
:101D08000BD005F5A055A84207D005F58065A84277
:101D180003D005F58065A84207D124F440544D69E5
:101D280044EA05148D6944EA05144460C2614A68AE
:101D3800C263036230BC704723F40063CD6843EA92
:101D4800052323F48063D9E7002C014030B4036AEB
:101D580023F480530362026A4468C36923F08073E2
:101D680023F4E6430D6843EA052322F400528D6804
:101D780042EA05320D4DA8420BD005F5A055A84200
:101D880007D005F58065A84203D005F58065A8420F
:101D980004D124F480444D6944EA85144460C36145
:101DA8004B680364026230BC704700BF002C0140DE
:101DB80030B4036A23F480330362036A4468426DD3
:101DC80022F4803222F070020D682A4323F4003393
:101DD8008D6843EA05430D4DA8420BD005F5A05583
:101DE800A84207D005F58065A84203D005F58065AF
:101DF800A84204D124F480344D6944EA052444609F
:101E080042654A688265036230BC7047002C014015
:101E180030B4036A23F480130362026A4468436D92
:101E280023F0807323F4E0430D6843EA052322F48A
:101E380000128D6842EA05520D4DA8420BD005F5F7
:101E4800A055A84207D005F58065A84203D005F53E
:101E58008065A84204D124F480244D6944EA85248D
:101E6800446043654B68C365026230BC704700BF7D
:101E7800002C014010B4036A046A24F001040462CF
:101E8800846924F0F00C4CEA021223F00A030B4395
:101E9800826103625DF8044B704710B4046A24F051
:101EA800100404628469036A24F4704C4CEA023218
:101EB80023F0A00343EA0113826103625DF8044B37
:101EC8007047836823F070030B4343F00703836074
:101ED800704770470368224A904206D0B0F1804F9D
:101EE80003D0A2F59432904203D123F070034A68DC
:101EF80013431B4A904212D0B0F1804F0FD0A2F585
:101F0800943290420BD002F59E32904207D002F5EF
:101F18008062904203D002F58062904203D123F49C
:101F28004073CA68134323F080034A69134303606C
:101F38008B68C3620B688362094B98420BD003F528
:101F4800A053984207D003F58063984203D003F565
:101F58008063984201D10B69036301234361704791
:101F6800002C014060B310B5044690F83D3013B31F
:101F7800022384F83D30214651F8040BFFF7AAFFED
:101F8800012384F8483084F83E3084F83F3084F8E0
:101F9800403084F8413084F8423084F8433084F883
:101FA800443084F8453084F8463084F8473084F863
:101FB8003D30002010BD80F83C30FEF7AFFAD7E77F
:101FC8000120704760B310B5044690F83D3013B354
:101FD800022384F83D30214651F8040BFFF77AFFBD
:101FE800012384F8483084F83E3084F83F3084F880
:101FF800403084F8413084F8423084F8433084F823
:10200800443084F8453084F8463084F8473084F802
:102018003D30002010BD80F83C30FFF75AFFD7E76D
:102028000120704730B4036A23F010030362036A87
:102038004468826922F0807222F4E6420D6842EA1E
:10204800052223F020038D6843EA0513144DA842A6
:102058001DD0134DA8420BD005F5A055A84207D0B6
:1020680005F58065A84203D005F58065A84207D12B
:1020780024F440644D6944EA85048D6944EA850482
:10208800446082614A688263036230BC704723F00F
:102098008003CD6843EA051323F04003D9E700BF66
:1020A800002C014038B590F83C30012B00F09580A9
:1020B80004460D46012380F83C30142A00F288803B
:1020C800DFE802F00B8686861F868686348686863B
:1020D800488686865D86868671000068FFF7B0FDB3
:1020E8002268936943F0080393612268936923F097
:1020F800040393612268936929690B439361002063
:1021080067E00068FFF78EFF2268936943F4006375
:1021180093612268936923F48063936122689369C9
:10212800296943EA01239361002052E00068FFF720
:10213800CFFD2268D36943F00803D3612268D369CD
:1021480023F00403D3612268D36929690B43D3615F
:1021580000203EE00068FFF7F9FD2268D36943F4E8
:102168000063D3612268D36923F48063D361226852
:10217800D369296943EA0123D361002029E0006873
:10218800FFF716FE2268536D43F008035365226873
:10219800536D23F0040353652268536D29690B437B
:1021A8005365002015E00068FFF732FE2268536D82
:1021B80043F4006353652268536D23F480635365C9
:1021C8002268536D296943EA01235365002000E022
:1021D8000120002384F83C3038BD0220FCE710B40D
:1021E800846824F47F4C42EA03220A4342EA0C0240
:1021F80082605DF8044B704790F83C30012B76D034
:1022080010B50446012380F83C30022380F83D30A5
:1022180002689068374B034093600B68602B4CD082
:1022280029D8402B54D00CD9502B22D1CA684968E0
:102238002068FFF71FFE50212068FFF742FE0020AC
:1022480005E0202B0DD009D9302B0AD0012001231D
:1022580084F83D30002384F83C3010BD0BB1102BBE
:1022680005D119462068FFF72CFE0020EFE7012072
:10227800EDE70120EBE7B3F5805F34D0B3F5005FFD
:102288000CD1CB684A6889682068FFF7A8FF2268E4
:10229800936843F4804393600020D8E7702B24D1DF
:1022A800CB684A6889682068FFF799FF22689368B5
:1022B80043F0770393600020C9E7CA68496820683B
:1022C800FFF7EBFD60212068FFF7FBFD0020BEE76C
:1022D800CA6849682068FFF7CDFD40212068FFF7EC
:1022E800F0FD0020B3E70020B1E70120AFE70220AE
:1022F800704700BF8800FEFF01F01F01012303FAA9
:1023080001FC036A23EA0C030362036A02FA01F17F
:102318000B4303627047000010B5044608460029C5
:102328003BD194F83E30DBB2013B18BF0123002BB0
:1023380040F0888000285BD1022384F83E300122D7
:1023480001462068FFF7D8FF2368414A93420BD023
:1023580002F5A052934207D002F58062934203D05F
:1023680002F58062934203D15A6C42F400425A64E7
:102378002368374A934257D0B3F1804F54D0A2F51F
:102388009432934250D002F59E3293424CD01A6850
:1023980042F001021A60002055E004290CD00829F7
:1023A80011D00C2916D010291BD094F84330DBB279
:1023B800013B18BF0123BAE794F83F30DBB2013B79
:1023C80018BF0123B3E794F84030DBB2013B18BFD4
:1023D8000123ACE794F84130DBB2013B18BF01237D
:1023E800A5E794F84230DBB2013B18BF01239EE712
:1023F800042809D008280BD00C280DD010280FD09D
:10240800022384F843309AE7022384F83F3096E7A2
:10241800022384F8403092E7022384F841308EE7A3
:10242800022384F842308AE799680A4A0A40062A51
:102438000AD0B2F5803F09D01A6842F001021A604A
:10244800002000E0012010BD0020FCE70020FAE792
:10245800002C01400700010090F83C30012B33D0DC
:1024680030B4012380F83C30022380F83D30026804
:1024780053689468154DAA4221D023F070030D6863
:102488002B4353600368114A93420AD0B3F1804F3B
:1024980007D0A2F59432934203D002F59E329342BC
:1024A80004D124F080048A6814439C60012380F8D6
:1024B8003D30002380F83C30184630BC704723F488
:1024C80070034D682B43D8E702207047002C014069
:1024D80090F83C30012B3BD010B4012380F83C30FD
:1024E800CB6823F440738A68134323F480634A68F3
:1024F800134323F400630A68134323F480530A69DF
:10250800134323F400534A69134323F480438A6A2C
:10251800134323F470238A6943EA024302680D4C8B
:10252800A24207D05364002380F83C3018465DF877
:10253800044B704723F470034C6A43EA045323F0B6
:102548008073CC69234323F00073096A0B43E9E7DE
:1025580002207047002C014010B5044683680269C8
:10256800134342691343C2691343016808684E4A1A
:10257800024013430B602268536823F44053E16818
:102588000B435360A269236A1A4321688B6823F4BA
:10259800306313438B602368444A934214D0444AFF
:1025A800934227D002F5806293421FD01023E0693E
:1025B800B0F5004F20D0082B70D8DFE803F04A6050
:1025C800486F636F6F6F66003A4B1B6B03F0030332
:1025D800032B09D8DFE803F00204060C0023E6E722
:1025E8000423E4E70823E2E71023E0E70023DEE71B
:1025F8000223DCE70023DAE7082B49D8DFE803F0F9
:10260800051F2548224848480900FFF7E5F8002833
:1026180040D06268530803EB4000B0FBF2F080B290
:10262800A0F110024FF6EF739A4235D820F00F034D
:10263800C0F3420018432368D86000201BE0FFF76E
:10264800E1F8E4E7FEF7B6FFE1E71B48E1E71A48DF
:1026580002E0FFF7C1F818B3636800EB5300B0FB62
:10266800F3F080B2A0F110024FF6EF739A4219D836
:102678002368D860002000236366A36610BDFFF7B7
:10268800C1F8E8E7FEF796FFE5E74FF40040E3E717
:102698000120F0E70020EEE70120ECE70120EAE75F
:1026A8000020E8E70120E6E7F369FFEF0038014082
:1026B800004400400010024000127A00436A13F000
:1026C800010F06D00268536823F40033816A0B4374
:1026D8005360436A13F0020F06D00268536823F46C
:1026E8008033C16A0B435360436A13F0040F06D06A
:1026F8000268536823F48023016B0B435360436AD9
:1027080013F0080F06D00268536823F40043416BA6
:102718000B435360436A13F0100F06D002689368A6
:1027280023F48053816B0B439360436A13F0200FAB
:1027380006D00268936823F40053C16B0B4393607F
:10274800436A13F0400F0AD00268536823F48013D9
:10275800016C0B435360036CB3F5801F0BD0436AC5
:1027680013F0800F06D00268536823F40023816CAD
:102778000B43536070470268536823F4C003416CED
:102788000B435360EBE72DE9F84305460F46164621
:102798009946DDF820802C68E46937EA04030CBF09
:1027A8004FF0010C4FF0000CB44553D1B8F1FF3F86
:1027B800F1D0FEF7CBFBA0EB090040452DD8B8F1CE
:1027C800000F2AD02B681A6812F0040FE3D0DA69D8
:1027D80012F4006FDFD04FF400621A622A6852E8E0
:1027E800003F23F4D07342E800310029F6D12A686B
:1027F80002F1080353E8003F23F00103083242E8DE
:1028080000310029F3D12023AB67EB67C5F880308E
:10281800002385F8743003201DE02A6852E8003F41
:1028280023F4D07342E800310029F6D12A6802F176
:10283800080353E8003F23F00103083242E800315F
:102848000029F3D12023AB67EB67002385F87430A8
:10285800032000E00020BDE8F88330B583B00446CB
:102868000023C0F88030FEF771FB05462268126825
:1028780012F0080F0DD123681B6813F0040F16D14E
:102888002023A367E3670020206684F8740003B060
:1028980030BD6FF07E430093034600224FF40011D1
:1028A8002046FFF770FF0028E5D00320EFE76FF020
:1028B8007E4300932B4600224FF480012046FFF709
:1028C80062FF0028DCD00320E1E768B310B50446B6
:1028D800836F03B32423A3672268136823F00103DB
:1028E80013602046FFF738FE012813D0636ABBB98E
:1028F8002268536823F4904353602268936823F056
:102908002A0393602268136843F00103136020468A
:10291800FFF7A3FF10BD80F87430FDF7DFFED9E79D
:102928002046FFF7CBFEE3E701207047034AD2F8C1
:10293800883043F47003C2F88830704700ED00E037
:10294800DFF834D00D480E490E4A002302E0D4586F
:10295800C4500433C4188C42F9D30B4A0B4C0023DF
:1029680001E013600432A242FBD3FFF7DFFF00F05F
:1029780011F8FDF769FCFEE7003000200000002098
:102988000C0000204C2A00080C000020A0010020A8
:10299800FEE7000070B50D4D0D4C641BA410002619
:1029A800A64209D10B4D0C4C00F020F8641BA41072
:1029B8000026A64205D170BD55F8043B984701365C
:1029C800EEE755F8043B98470136F2E7442A000839
:1029D800442A0008442A0008482A000802440346FA
:1029E800934200D1704703F8011BF9E7F8B500BF1F
:1029F800F8BC08BC9E467047F8B500BFF8BC08BCD8
:042A08009E4670472F
:102A0C0002030405060708090A0B0C0D0E0F101023
:102A1C000102030405060708090A0B0C0D0E0F1022
:102A2C000000000000000000010203040607080972
:082A3C00000000000102030488
:042A4400AD010008D8
:042A480089010008F8
:0C2A4C00010000001000000000127A00E1
:04000005080029497D
:00000001FF
