:020000040800F2
:100000000030002051400008C9170008CB17000835
:10001000CD170008CF170008D11700080000000016
:10002000000000000000000000000000D3170008DE
:10003000D517000800000000D7170008D9170008DE
:10004000A1400008A1400008A1400008A14000080C
:10005000A1400008A1400008A1400008A1400008FC
:10006000A1400008A1400008A1400008A1400008EC
:10007000A1400008A1400008A1400008A1400008DC
:10008000A1400008A1400008A1400008A1400008CC
:10009000A1400008A1400008A1400008A1400008BC
:1000A000A1400008A1400008A1400008A1400008AC
:1000B000E1170008F117000800000000A140000847
:1000C000A14000080000000000000000A14000085E
:1000D00000000000A1400008A1400008A140000865
:1000E000A1400008A140000800000000000000003E
:1000F0000000000000000000000000000000000000
:1001000000000000000000000000000000000000EF
:100110000000000000000000A1400008A14000080D
:1001200000000000000000000000000000000000CF
:1001300000000000000000000000000000000000BF
:10014000A1400008A14000080000000000000000DD
:10015000000000000000000000000000000000009F
:10016000000000000000000000000000000000008F
:10017000000000000000000000000000000000007F
:0801800000000000A14000088E
:1001900010B5054C237833B9044B13B10448AFF3C1
:1001A00000800123237010BD8000002000000000AB
:1001B0008450000808B5034B1BB103490348AFF353
:1001C000008008BD0000000084000020845000086A
:1001D00001F0FF01102A2BDB10F0070F08D010F8F8
:1001E000013B013A8B422DD010F0070F42B3F6D1FC
:1001F000F0B441EA012141EA014122F007047FF015
:1002000000070023F0E80256083C85EA010586EA6B
:10021000010685FA47F5A3FA87F586FA47F6A5FAA7
:1002200087F68EB9EED1F0BC01F0FF0102F00702B3
:1002300032B110F8013B013A83EA010313B1F8D15E
:100240000020704701387047002D06BF354603383F
:10025000073815F0010F07D1013015F4807F02BF78
:10026000013015F4C03F0130F0BC0138704700BFC9
:1002700081F0004102E000BF83F0004330B54FEA57
:1002800041044FEA430594EA050F08BF90EA020FC4
:100290001FBF54EA000C55EA020C7FEA645C7FEA57
:1002A000655C00F0E2804FEA5454D4EB5555B8BF7A
:1002B0006D420CDD2C4480EA020281EA030382EAEB
:1002C000000083EA010180EA020281EA0303362D7D
:1002D00088BF30BD11F0004F4FEA01314FF4801C50
:1002E0004CEA113102D0404261EB410113F0004F62
:1002F0004FEA03334CEA133302D0524263EB430319
:1003000094EA050F00F0A780A4F10104D5F1200EB6
:100310000DDB02FA0EFC22FA05F2801841F1000111
:1003200003FA0EF2801843FA05F359410EE0A5F1E5
:1003300020050EF1200E012A03FA0EFC28BF4CF016
:10034000020C43FA05F3C01851EBE37101F00045CC
:1003500007D54FF0000EDCF1000C7EEB00006EEBD9
:100360000101B1F5801F1BD3B1F5001F0CD3490863
:100370005FEA30004FEA3C0C04F101044FEA4452BA
:1003800012F5800F80F09A80BCF1004F08BF5FEA41
:10039000500C50F1000041EB045141EA050130BD21
:1003A0005FEA4C0C404141EB0101013C28BFB1F533
:1003B000801FE9D291F0000F04BF01460020B1FA7E
:1003C00081F308BF2033A3F10B03B3F120020CDA51
:1003D0000C3208DD02F1140CC2F10C0201FA0CF02F
:1003E00021FA02F10CE002F11402D8BFC2F1200C94
:1003F00001FA02F120FA0CFCDCBF41EA0C0190404A
:10040000E41AA2BF01EB0451294330BD6FEA040492
:100410001F3C1CDA0C340EDC04F11404C4F120027D
:1004200020FA04F001FA02F340EA030021FA04F38F
:1004300045EA030130BDC4F10C04C4F1200220FAE6
:1004400002F001FA04F340EA0300294630BD21FA24
:1004500004F0294630BD94F0000F83F4801306BFEA
:1004600081F480110134013D4EE77FEA645C18BFDE
:100470007FEA655C29D094EA050F08BF90EA020F75
:1004800005D054EA000C04BF1946104630BD91EA6D
:10049000030F1EBF0021002030BD5FEA545C05D170
:1004A0004000494128BF41F0004130BD14F58004AF
:1004B0003CBF01F5801130BD01F0004545F0FE4123
:1004C00041F470014FF0000030BD7FEA645C1ABF58
:1004D000194610467FEA655C1CBF0B46024650EA8F
:1004E000013406BF52EA033591EA030F41F40021BB
:1004F00030BD00BF90F0000F04BF0021704730B541
:100500004FF4806404F132044FF000054FF0000115
:1005100050E700BF90F0000F04BF0021704730B5D6
:100520004FF4806404F1320410F0004548BF4042AB
:100530004FF000013EE700BF42004FEAE2014FEA00
:1005400031014FEA02701FBF12F07F4393F07F4FDB
:1005500081F06051704732F07F4208BF704793F0DE
:100560007F4F04BF41F40021704730B54FF46074F1
:1005700001F0004521F000411CE700BF50EA0102F4
:1005800008BF704730B54FF000050AE050EA01029D
:1005900008BF704730B511F0004502D5404261EB0D
:1005A00041014FF4806404F132045FEA915C3FF44E
:1005B000D8AE4FF003025FEADC0C18BF03325FEAEB
:1005C000DC0C18BF033202EBDC02C2F1200300FA9C
:1005D00003FC20FA02F001FA03FE40EA0E0021FAC1
:1005E00002F11444BDE600BF70B54FF0FF0C4CF4AF
:1005F000E06C1CEA11541DBF1CEA135594EA0C0F61
:1006000095EA0C0F00F0DEF82C4481EA030621EA9B
:100610004C5123EA4C5350EA013518BF52EA0335D6
:1006200041F4801143F4801338D0A0FB02CE4FF088
:100630000005E1FB02E506F00042E0FB03E54FF0B8
:100640000006E1FB03569CF0000F18BF4EF0010EB0
:10065000A4F1FF04B6F5007F64F5407404D25FEAAC
:100660004E0E6D4146EB060642EAC62141EA55515F
:100670004FEAC52040EA5E504FEACE2EB4F1FD0CA1
:1006800088BFBCF5E06F1ED8BEF1004F08BF5FEA1F
:10069000500E50F1000041EB045170BD06F00046D1
:1006A00046EA010140EA020081EA0301B4EB5C047E
:1006B000C2BFD4EB0C0541EA045170BD41F4801176
:1006C0004FF0000E013C00F3AB8014F1360FDEBF9B
:1006D000002001F0004170BDC4F10004203C35DA77
:1006E0000C341BDC04F11404C4F1200500FA05F3FA
:1006F00020FA04F001FA05F240EA020001F000429B
:1007000021F0004110EBD37021FA04F642EB060110
:100710005EEA430E08BF20EAD37070BDC4F10C043A
:10072000C4F1200500FA04F320FA05F001FA04F2FE
:1007300040EA020001F0004110EBD37041F10001EA
:100740005EEA430E08BF20EAD37070BDC4F12005F5
:1007500000FA05F24EEA020E20FA04F301FA05F25D
:1007600043EA020321FA04F001F0004121FA04F205
:1007700020EA020000EBD3705EEA430E08BF20EAD5
:10078000D37070BD94F0000F0FD101F0004640000F
:1007900041EB010111F4801F08BF013CF7D041EA91
:1007A000060195F0000F18BF704703F00046520095
:1007B00043EB030313F4801F08BF013DF7D043EA66
:1007C0000603704794EA0C0F0CEA135518BF95EA1C
:1007D0000C0F0CD050EA410618BF52EA4306D1D1A3
:1007E00081EA030101F000414FF0000070BD50EAC2
:1007F000410606BF1046194652EA430619D094EA4C
:100800000C0F02D150EA013613D195EA0C0F05D135
:1008100052EA03361CBF104619460AD181EA030189
:1008200001F0004141F0FE4141F470014FF0000041
:1008300070BD41F0FE4141F4780170BD70B54FF0DC
:10084000FF0C4CF4E06C1CEA11541DBF1CEA13555C
:1008500094EA0C0F95EA0C0F00F0A7F8A4EB05043E
:1008600081EA030E52EA03354FEA013100F0888035
:100870004FEA03334FF0805545EA131343EA1263FE
:100880004FEA022245EA111545EA10654FEA0026B3
:100890000EF000419D4208BF964244F1FD0404F56C
:1008A000407402D25B084FEA3202B61A65EB0305C8
:1008B0005B084FEA32024FF480104FF4002CB6EB85
:1008C000020E75EB030E22BFB61A754640EA0C0005
:1008D0005B084FEA3202B6EB020E75EB030E22BF45
:1008E000B61A754640EA5C005B084FEA3202B6EB86
:1008F000020E75EB030E22BFB61A754640EA9C0045
:100900005B084FEA3202B6EB020E75EB030E22BF14
:10091000B61A754640EADC0055EA060E18D04FEAD2
:10092000051545EA16754FEA06164FEAC30343EA72
:1009300052734FEAC2025FEA1C1CC0D111F4801F3F
:100940000BD141EA00014FF000004FF0004CB6E738
:1009500011F4801F04BF01430020B4F1FD0C88BFD7
:10096000BCF5E06F3FF6AFAEB5EB030C04BFB6EBE2
:10097000020C5FEA500C50F1000041EB045170BDD5
:100980000EF0004E4EEA113114EB5C04C2BFD4EB02
:100990000C0541EA045170BD41F480114FF0000E86
:1009A000013C90E645EA060E8DE60CEA135594EA02
:1009B0000C0F08BF95EA0C0F3FF43BAF94EA0C0F05
:1009C0000AD150EA01347FF434AF95EA0C0F7FF47A
:1009D00025AF104619462CE795EA0C0F06D152EACE
:1009E00003353FF4FDAE1046194622E750EA4106B2
:1009F00018BF52EA43067FF4C5AE50EA41047FF4C3
:100A00000DAF52EA43057FF4EBAE12E74FF0FF3C27
:100A100006E000BF4FF0010C02E000BF4FF0010CF8
:100A20004DF804CD4FEA410C7FEA6C5C4FEA430C71
:100A300018BF7FEA6C5C1BD001B050EA410C0CBFC0
:100A400052EA430C91EA030F02BF90EA020F002022
:100A5000704710F1000F91EA030F58BF994208BF89
:100A600090422CBFD8176FEAE37040F00100704746
:100A70004FEA410C7FEA6C5C02D150EA013C07D19D
:100A80004FEA430C7FEA6C5CD6D152EA033CD3D0E8
:100A90005DF8040B704700BF8446104662468C46E2
:100AA0001946634600E000BF01B5FFF7B7FF002815
:100AB00048BF10F1000F01BD4DF808EDFFF7F4FF3E
:100AC0000CBF012000205DF808FB00BF4DF808EDC9
:100AD000FFF7EAFF34BF012000205DF808FB00BFEC
:100AE0004DF808EDFFF7E0FF94BF012000205DF80E
:100AF00008FB00BF4DF808EDFFF7CEFF94BF0120C3
:100B000000205DF808FB00BF4DF808EDFFF7C4FFBB
:100B100034BF012000205DF808FB00BF4FEA41020E
:100B200012F5001215D211D56FF47873B3EB62523F
:100B300012D94FEAC12343F0004343EA505311F066
:100B4000004F23FA02F018BF404270474FF00000F8
:100B5000704750EA013005D111F0004008BF6FF036
:100B6000004070474FF00000704700BF10B44FF0D6
:100B7000000C1EE013469C4519DA5A1E154951F81F
:100B8000220051F82310884204DD124C44F8221050
:100B900044F82300104951F8220051F823108842EC
:100BA000E8DD0D4C44F8221044F82300E2E70CF194
:100BB000010CBCF1080F01DC0923DCE7054B5A6985
:100BC000064B1A60044B5A69054B1A605DF8044BDA
:100BD000704700BFF0000020CC0000202C01002056
:100BE0002801002010B44FF0000C2AE013469C4569
:100BF00025DA5A1E1D4951F8220051F82310884267
:100C000004DD1A4C44F8221044F82300184951F826
:100C1000220051F82310884204DD154C44F82210BC
:100C200044F82300134951F8220051F82310884258
:100C3000DCDD104C44F8221044F82300D6E70CF118
:100C4000010CBCF1080F01DC0923D0E7074B5A69FE
:100C5000094B1A60064B5A69084B1A60054B5A69D2
:100C6000074B1A605DF8044B704700BF5401002029
:100C7000300100209C0000207C0100207801002031
:100C8000C000002010B4114B1B78082B02D90F4B69
:100C900000221A700D4A13780D494C880D4840F80F
:100CA000234008880C4941F823000C4948880C4C23
:100CB00044F823000B4C44F8230008880A4941F803
:100CC0002300013313705DF8044B7047800100204E
:100CD00084010020F0000020CC00002088010020CA
:100CE00030010020540100209C0000200000000082
:100CF0002DE9F84F6E4B1B78022B02D96D4B002269
:100D00001A606D4B1C686D4B1B68E41A002C40F395
:100D1000A580002C0ADB6A4B1B783BB1684B002294
:100D20001A70684B00200021C3E900012046FFF73C
:100D3000F1FB80468946634DD5E90023FFF79EFA13
:100D400006460F46C5E900675F4DD5E900234046DA
:100D50004946FFF793FA82468B46C5E900AB4AA3A2
:100D6000D3E9002330463946FFF7C4FE28B1554B7E
:100D700045A1D1E90001C3E9000145A3D3E900235E
:100D80005049D1E90001FFF7ABFE28B14D4B40A11E
:100D9000D1E90001C3E900014C4B1D682D1B1C600B
:100DA000444B1868FFF7B6FB06460F463AA3D3E953
:100DB000002340464946FFF717FC8046894638A382
:100DC000D3E900233F49D1E90001FFF70DFC0246BA
:100DD0000B4640464946FFF751FA80468946284669
:100DE000FFF798FB00220023FFF7FEFB02460B46AD
:100DF00040464946FFF740FA8046894602460B4680
:100E000030463946FFF738FA0022314BFFF716FD1E
:100E1000FFF784FE04462F4B18602F4B1B68002BF6
:100E20002ADB42464B4630463946FFF727FA002276
:100E3000274BFFF703FDFFF771FE274B1860002CCF
:100E40001EDB19A3D3E9002350465946FFF7F6FCF1
:100E5000FFF764FE214B1860BDE8F88F184B1B7834
:100E6000002B7FF456AF164B01221A70154B002051
:100E70000021C3E9000159E75B42174A1360D0E73C
:100E80006442144B1C60DCE70000000084D79741EB
:100E90000000000084D797C166666666668651408A
:100EA0008DEDB5A0F7C6B03E00000000006AF8C0A6
:100EB00090010020000000202C01002028010020CB
:100EC00091010020180100202001002014010020C1
:100ED00000002440C8000020C400002008000020BA
:100EE00010B504460368B3F1804F04D02268074B65
:100EF0009A4203D010BDFFF7C5FEF7E7FFF736FEB5
:100F0000FFF770FEFFF7F4FEF4E700BF00040040B7
:100F100010B514460A2392B2024802F0AAFF2046F6
:100F200010BD00BFA403002072B6FEE700B597B065
:100F3000282200210CA803F0D9F800230793089376
:100F400009930A930B9301930293039304930593DC
:100F5000069302230C9301221092102211921393F4
:100F60004FF4601315930CA801F05EF9C8B90F2374
:100F7000079302210891002309934FF480620A929B
:100F80000B9307A801F0A2FC68B94FF480530193BA
:100F90000023069301A801F09FFD30B917B05DF85A
:100FA00004FBFFF7C1FFFFF7BFFFFFF7BDFF000026
:100FB00008B501F015F9FFF7B9FF00F0BFF803F02D
:100FC00037F800F0B1FB00F00DF900F061F900F026
:100FD00025FB00F079FA00F041FA494C012220216A
:100FE000204601F024FF01224021204601F01FFF8E
:100FF00001228021204601F01AFF424802F066F9E2
:10100000414802F063F90021404802F08DFC08B12C
:10101000FFF78AFF00228021394801F008FF0821EC
:101020003A4802F081FC08B1FFF77EFF0022402120
:10103000334801F0FCFE02223549364800F0C2FD7B
:1010400008B1FFF771FF002220212D4801F0EFFECB
:1010500004223149314800F0B5FD68B1FFF764FF63
:10106000274C0821204601F0DBFE2D4B1870002292
:101070004021204601F0DBFE294B1B78002BEFD1ED
:1010800012E0284B42F210721A601D4C20212046BB
:1010900001F0D2FE00228021204601F0C8FE224B42
:1010A0001968224803F02AF801224FF480514FF0CA
:1010B000904001F0BCFE154C23681D4A12685A632B
:1010C00000224FF400714FF0904001F0B0FE236811
:1010D000184A1268DA63184B1A6840F6F5139A42F8
:1010E000CFDD104B42F21C521A60054C8021204685
:1010F00001F0A2FE00222021204601F098FECEE75A
:10110000000400480C03002058030020C002002007
:10111000840100209801002088010020E8010020BF
:1011200004000020000000209C0000209C500008CB
:10113000C4000020C8000020C000002070B588B0A6
:10114000002403940494059406940794234B5A694D
:1011500042F480025A615A6902F480020092009AB5
:101160005A6942F400325A615A6902F4003201921B
:10117000019A5A6942F480225A615B6903F4802320
:101180000293029B22464FF4D0514FF0904001F061
:101190004EFE134D2246F021284601F048FE4FF442
:1011A000D0530393012604960594069403A94FF0A7
:1011B000904001F057FD082303930494059403A97C
:1011C000284601F04FFDF0230393049605940694FE
:1011D00003A9284601F046FD08B070BD001002408A
:1011E0000004004800B58BB00023079308930993CF
:1011F00001930293039304930593069323484FF0BE
:10120000A04202604FF440324260836001220261DA
:10121000427680F82030C3628262C3600221C161DD
:1012200080F83020042242610376436300F0C0FB63
:1012300000BB0023079307A9144800F01FFFE0B983
:101240000123019302930023049304220392059344
:1012500006930DEB02010D4800F04EFD80B902230C
:101260000193029301A9094800F046FD58B90BB05B
:101270005DF804FBFFF758FEDBE7FFF755FEDFE7FD
:10128000FFF752FEEBE7FFF74FFEF0E79801002073
:1012900000B587B000230093019302930393049356
:1012A00005931D481D4A02604FF44032426083603E
:1012B00001220261427680F82030C3628262C360FC
:1012C0000221C16180F83020042242610376436329
:1012D00000F06EFBB8B90123009301930023039340
:1012E000042202920493059369460B4800F004FD22
:1012F00060B9022301936946074800F0FDFC40B93C
:1013000007B05DF804FBFFF70FFEE4E7FFF70CFE04
:10131000EFE7FFF709FEF3E7E801002000010050C6
:1013200010B58AB0044600230593069307930893EB
:1013300009930368B3F1A04F04D0414A93423FD0D0
:101340000AB010BD3F4A136801331360012B29D046
:101350003D4B5A6942F400325A615B6903F4003331
:101360000293029B03230593069305A94FF0904037
:1013700001F078FC3548364B0360002343608360FE
:101380008022C2604FF4807202614FF48062426139
:1013900020228261C36101F081FD70B92B4BA363F0
:1013A0005C62CDE7284B5A6942F080525A615B6912
:1013B00003F080530193019BCAE7FFF7B5FDEDE70A
:1013C000204A136801331360012B2AD01E4B5A693F
:1013D00042F400325A615B6903F400330493049BC6
:1013E000F02305930323069305A94FF0904001F0E5
:1013F00039FC1848184B0360002343608360802247
:10140000C2604FF4807202614FF480624261202218
:101410008261C36101F042FD70B90E4BA3635C624F
:101420008EE7094B5A6942F080525A615B6903F0BA
:1014300080530393039BC9E7FFF776FDEDE700BFF9
:1014400000010050940100200010024038020020EA
:10145000080002407C0200201C00024000B589B058
:101460000023049305930693079301930293039338
:1014700014484FF0804202603F2242608360632242
:10148000C2600361836102F075F890B94FF4805334
:10149000049304A90B4802F0B7F968B9002301933B
:1014A000039301A9074802F0DFFA40B909B05DF8DB
:1014B00004FBFFF739FDE9E7FFF736FDEEE7FFF73D
:1014C00033FDF3E70C03002000B589B0002304933B
:1014D0000593069307930193029303931448154AC7
:1014E00002603F224260836040F2F312C2600361F7
:1014F000836102F03FF890B94FF48053049304A93C
:101500000B4802F081F968B900230193039301A904
:10151000074802F0A9FA40B909B05DF804FBFFF7EB
:1015200003FDE9E7FFF700FDEEE7FFF7FDFCF3E75A
:10153000580300200004004000B585B003681F4A2E
:10154000934208D0B3F1804F10D01D4A934221D06E
:1015500005B05DF804FB1B4B9A6942F400629A6186
:101560009B6903F400630193019BF1E703F50433E6
:10157000DA6942F00102DA61DB6903F001030293E8
:10158000029B002211461C2001F0FCFC1C2001F0F3
:1015900031FDDDE70B4BDA6942F00202DA61DB690B
:1015A00003F002030393039B002211461D2001F068
:1015B000E9FC1D2001F01EFDCAE700BF002C014020
:1015C000000400400010024000B587B000230193E2
:1015D000029303930493059302680F4B9A4202D03F
:1015E00007B05DF804FB03F564435A6942F4003226
:1015F0005A615B6903F400330093009B4FF4A063CE
:101600000193022302930623059301A94FF0904012
:1016100001F028FBE4E700BF002C014010B59AB0B0
:1016200000241694179418941994139414941594F0
:101630000C940D940E940F941094119412942C22E7
:10164000214601A802F052FD3548364B03600723BE
:10165000436084604FF4FA53C36004614461846161
:1016600001F088FF002845D14FF48053169316A946
:101670002B4802F0C9F800283FD1294801F0AAFF01
:1016800000283DD1002313931493159313A92448E4
:1016900002F0EAF9002836D160230C9300220D9263
:1016A0000E920F921092119212920CA91C4802F005
:1016B00001F858BB08220CA9194801F0FBFF40BBF8
:1016C0000023019302930393049305934FF4005274
:1016D0000692079308934FF0007209920A930B93B6
:1016E00001A90F4802F0FCF9B0B90D48FFF76CFFF3
:1016F0001AB010BDFFF718FCB6E7FFF715FCBCE702
:10170000FFF712FCBEE7FFF70FFCC5E7FFF70CFC85
:10171000D0E7FFF709FCD3E7FFF706FCE5E700BFDA
:10172000C0020020002C014008B50B480B4B0360A1
:101730004FF41653436000238360C36003610C229F
:1017400042618361C3610362436202F036FC00B907
:1017500008BDFFF7E9FBFBE7A403002000440040BD
:1017600000B589B000230393049305930693079370
:101770000268144B9A4202D009B05DF804FB03F5ED
:10178000E633DA6942F40032DA61DA6902F40032EF
:101790000192019A5A6942F400325A615B6903F47A
:1017A00000330293029B48F2040303930223049341
:1017B000032306930723079303A94FF0904001F0FA
:1017C00051FAD9E700440040FEE7FEE7FEE7FEE7F6
:1017D000FEE770477047704708B500F013FD08BD7D
:1017E00008B5024801F0B1FD08BD00BF0C030020A0
:1017F00008B5024801F0A9FD08BD00BF580300204C
:1018000082B00A4B9A6942F001029A619A6902F029
:1018100001020092009ADA6942F08052DA61DB69D3
:1018200003F080530193019B02B070470010024007
:1018300070477047704738B50268936803F0030338
:10184000012B01D0002038BD0446136813F0010FAE
:1018500033D0936803F00D03012B09D0036C43F0E0
:1018600010030364436C43F0010343640120EAE77F
:10187000936843F002039360036803221A6000F048
:10188000CDFC054623689B6813F0010F13D000F0D0
:10189000C5FC401B0228F5D923689B6813F0010F93
:1018A000F0D0236C43F010032364636C43F0010316
:1018B00063640120C7E70020C5E70020C3E70000FC
:1018C00038B504460268936803F00303012B0DD07A
:1018D00091681A4B19420FD0236C43F01003236414
:1018E000636C43F001036364012038BD136813F097
:1018F000010FEDD00020F8E7936843F001039360F7
:1019000000F08CFC054623681B6813F0010F13D10F
:1019100000F084FC431B022BF5D923681B6813F0ED
:10192000010FF0D1236C43F010032364636C43F088
:10193000010363640120D8E70020D6E73F00008060
:1019400008B5406A036C43F040030364436C43F002
:1019500004034364FFF76EFF08BD08B5406AFFF754
:1019600068FF08BD08B5436A1A6C12F0500F1AD10F
:101970001A6C42F400721A641A68D26812F4406F4A
:101980000DD15A7E5AB91A6C22F480721A641A6CFC
:1019900012F4805F03D11A6C42F001021A641846F7
:1019A000FFF746FF08BD9B6B1B6B9847FAE70000EB
:1019B00030B597B000230193002800F0F78004466B
:1019C000036C13F0100F52D1036CABB100202368ED
:1019D0009A6812F0805F03D09B6813F0005F47D0D5
:1019E000236C23F0120343F010032364636C43F071
:1019F0000103636401203BE04364C364836480F8B3
:101A00003C30FFF78DFC23689B6813F0805F01D0AA
:101A10000020DCE72046FFF70EFF236C13F0100FC9
:101A2000D5D10028D3D1236C23F4885323F00203AB
:101A300043F0020323642268936823F040539360C9
:101A40002268936843F080539360594B1B68594A4E
:101A5000A2FB03239B0C03EB83035B00019302E0D7
:101A6000019B013B0193019B002BF9D1AFE70020C3
:101A7000236C13F0100F40F09080002840F08D8010
:101A80002368996811F0040140F08780226C22F4E9
:101A9000817242F002022264B3F1A04F54D04FF0A1
:101AA000A04202929A6802F00302012A4FD0029BE0
:101AB00023B19A6802F00302012A4DD03E4A93688E
:101AC00023F4403365682B439360627E5303656B58
:101AD000012D01D04FF480510B43E1680B43A16805
:101AE0000B4394F8201001293BD0A26A012A02D0AE
:101AF000E16A0A4313432268916811F00C0F0CD17C
:101B0000D16821F4804121F00201D160217E94F856
:101B10003020520042EA813213432168CD68274ABF
:101B20002A401343CB602369012B2DD02268136B0D
:101B300023F00F03136300236364236C23F0030378
:101B400043F0010323642FE01D4A0292AAE71B68B9
:101B500013F0010FB9D1AAE71B6813F0010FB4D13C
:101B6000ACE732B9626A013A43EA424343F4803354
:101B7000BBE7226C22F0220242F020022264626C57
:101B800042F001026264B0E721680B6B23F00F039F
:101B9000E269013A13430B63CDE7236C23F0120390
:101BA00043F010032364012017B030BD0120FBE790
:101BB0001400002083DE1B430003005007C0F0FF29
:101BC00000010050F8B504460068806810F0040F6A
:101BD00040F083800E46154694F83C30012B7ED0B1
:101BE000012384F83C303F4B9B6813F01F0F05D056
:101BF000002384F83C3001273846F8BD2046FFF723
:101C00005FFE0746002864D1236C23F4706323F041
:101C1000010343F480732364324B9B6813F01F0F5E
:101C200017D02268B2F1A04F13D0236C43F4801375
:101C300023642D4B9A421BD14FF0A043DB6813F075
:101C4000007F15D0236C23F4405343F48053236466
:101C50000EE0236C23F4801323642368DB6813F005
:101C6000007F05D0236C23F4405343F48053236456
:101C7000236C13F4805F29D0636C23F00603636444
:101C8000002384F83C30A36B184A9A62A36B184A6D
:101C9000DA62A36B174A1A6323681C221A6022684F
:101CA000536843F0100353602268D36843F0010384
:101CB000D36021682B4632464031A06B01F016F903
:101CC0002268936843F00403936095E700236364FC
:101CD000D6E7002384F83C308EE702278CE7022702
:101CE0008AE700BF0003005000010050651900089A
:101CF0005B1900084119000830B496B00022019227
:101D000090F83C20012A00F0AF810346012280F8C0
:101D10003C200068826812F0040F40F09A814A6803
:101D2000042A37D8046B02EB420252004FF01F0C1A
:101D30000CFA02FC24EA0C0C0C6804FA02F24CEADD
:101D4000020202631868826812F00C0F72D10A68EE
:101D5000092A56D9846902EB42021E3A4FF0070C59
:101D60000CFA02FC24EA0C048D6805FA02F2224304
:101D7000826148691C68E268C2F3C102520000FA3D
:101D800002F208690138032800F29380DFE800F0CE
:101D900048707B86092A10D8446B02EB420252003D
:101DA0001E3A4FF01F0C0CFA02FC24EA0C040D68DA
:101DB00005FA02F222434263C4E70E2A10D8846B6C
:101DC00002EB420252003C3A4FF01F0C0CFA02FCAC
:101DD00024EA0C040D6805FA02F222438263B1E79B
:101DE000C46B02EB420252005A3A4FF01F0C0CFA3D
:101DF00002FC24EA0C040D6805FA02F22243C263D5
:101E0000A0E7446902EB42024FF0070C0CFA02FC17
:101E100024EA0C048D6805FA02F222434261A8E725
:101E2000256E924828400D6842EA8562104340F0D2
:101E3000004020661868826802F00302012A68D018
:101E4000CA68012A6BD0D0F8B02001240D68AC40DC
:101E500022EA0402C0F8B0200A68102A00F0888044
:101E6000112A00F0A680122A00F0A9800020F5E0D7
:101E7000656E7E4828400D6842EA8562104340F056
:101E800000406066D6E7A56E784828400D6842EAB3
:101E90008562104340F00040A066CBE7E56E7348D2
:101EA00028400D6842EA8562024342F00042E26641
:101EB000C0E7226E02F0F8420868B2EB806F03D1EF
:101EC000226E22F0004222661A68506E00F0F8403E
:101ED0000C68B0EB846F03D1506E20F00040506668
:101EE0001A68906E00F0F8400C68B0EB846F03D174
:101EF000906E20F0004090661A68D06E00F0F840B6
:101F00000C68B0EB846F95D1D06E20F00040D066A5
:101F100090E7026812F0010F92D000209EE0D0F806
:101F2000B02001240D68AC402243C0F8B0200A68FC
:101F3000092A0ED91D68A86902EB42021B3A072440
:101F4000944020EA04008C6804FA02F20243AA6179
:101F500082E71D686869013202EB4202072494405F
:101F600020EA04008C6804FA02F202436A6173E713
:101F70003F49896811F4000F7FF472AF1868B0F11F
:101F8000A04F23D04FF0A0410291816801F00301DE
:101F900001291ED0029921B18C6804F00304012CA0
:101FA00021D0102A24D0112A42D0122A4AD000204F
:101FB00054E02F49896811F0807FDFD053E72C4926
:101FC000896811F4800FD9D0002047E02949029197
:101FD000DBE7016811F0010FDCD01A6C42F020023F
:101FE0001A6401203AE0096811F0010FF5D1D8E731
:101FF000B0F1A04FD7D11E498A6842F400028A602E
:102000001D4A1268A1F14E61A1F58421A1F27D4122
:10201000A1FB0212920C02EB82025200019202E03A
:10202000019A013A0192019A002AF9D1002015E0A3
:10203000B0F1A04FB9D10E498A6842F080728A602F
:1020400000200BE00A498A6842F480028A6000207E
:1020500004E01A6C42F020021A640120002283F886
:102060003C2016B030BC70470220FAE700F0FF8336
:1020700000030050000100501400002030B494B060
:1020800003460268B2F1A04F3DD04FF0A04000904F
:102090000098002876D093F83CC0BCF1010F73D0B3
:1020A0004FF0010C83F83CC0926812F0040F5ED12F
:1020B000826812F0040F5AD10A68002A32D0334CD9
:1020C000A26822F4604293F830C04D6845EA4C3C67
:1020D00042EA0C02A2601C68A26802F00302012A14
:1020E00014D0826802F00302012A15D0274CA2689E
:1020F00022F4716222F00F020868896801430A43E2
:10210000A260002038E022480090C1E7226812F067
:10211000010FE6D000202FE0026812F0010FE5D099
:10212000002029E019498A6822F460428A6019680F
:102130008A6802F00302012A0DD0826802F00302CD
:10214000012A0ED011498A6822F4716222F00F022E
:102150008A60002010E00A6812F0010FEDD0002024
:102160000AE0026812F0010FECD0002004E01A6CC3
:1021700042F020021A640120002283F83C2014B0AF
:1021800030BC70470120FAE70220F8E70003005056
:102190000001005010B504460E4B18784FF47A73C6
:1021A000B3FBF0F30C4A1068B0FBF3F000F030FF23
:1021B00068B90F2C01D901200AE0002221464FF016
:1021C000FF3000F0DFFE054B1C60002000E0012026
:1021D00010BD00BF0C0000201400002010000020E3
:1021E00008B5074A136843F010031360032000F09A
:1021F000B7FE0020FFF7CEFFFFF702FB002008BD6F
:1022000000200240034A1168034B1B780B44136003
:10221000704700BF280400200C000020014B186804
:10222000704700BF28040020002800F0018370B52B
:1022300082B00446036813F0010F3BD0B54B5B68D6
:1022400003F00C03042B1ED0B24B5B6803F00C03AD
:10225000082B13D06368B3F5803F68D0002B40F0A3
:10226000928003F1804303F504331A6822F480322C
:102270001A601A6822F480221A605DE0A54B5B6840
:1022800013F4803FE6D04FF4003393FAA3F3A14B4D
:1022900019684FF4003393FAA3F3B3FA83F303F00E
:1022A0001F03012202FA03F30B4203D06368002BE1
:1022B00000F0C082236813F0020F00F0C580954B38
:1022C0005B6813F00C0F00F09C80924B5B6803F08E
:1022D0000C03082B00F08F802369002B00F0F280A4
:1022E000012292FAA2F3B3FA83F303F1845303F5C4
:1022F00084139B001A60FFF791FF0546022393FAAF
:10230000A3F3844B1968022393FAA3F3B3FA83F37C
:1023100003F01F03012202FA03F30B4240F0C380D3
:10232000FFF77CFF401B0228E8D903208BE2794AA3
:10233000136843F480331360764AD36A23F00F03A3
:10234000A1680B43D3626368002B36D0FFF766FFAA
:1023500005464FF4003393FAA3F36E4B19684FF41C
:10236000003393FAA3F3B3FA83F303F01F030122BC
:1023700002FA03F30B429DD1FFF750FF401B642884
:10238000E7D903205FE2B3F5A02F09D0614B1A68AB
:1023900022F480321A601A6822F480221A60CBE795
:1023A00003F18043A3F53C331A6842F480221A609B
:1023B0001A6842F480321A60BEE7FFF72FFF054625
:1023C0004FF4003393FAA3F3524B19684FF40033E0
:1023D00093FAA3F3B3FA83F303F01F03012202FA83
:1023E00003F30B423FF466AFFFF718FF401B64286E
:1023F000E6D9032027E2474B5B6813F4803F7FF464
:102400006BAF022393FAA3F3424B1968022393FAAA
:10241000A3F3B3FA83F303F01F03012202FA03F3D9
:102420000B4203D02369934240F006823948036887
:1024300023F0F8036169F82292FAA2F2B2FA82F26A
:1024400001FA02F213430360236813F0080F00F04F
:102450008D80A369002B61D0012191FAA1F2B2FA1B
:1024600082F22D4B13449B001960FFF7D7FE0546FF
:10247000022393FAA3F293FAA3F293FAA3F2254A62
:10248000516A93FAA3F3B3FA83F303F01F03012213
:1024900002FA03F30B4269D1FFF7C0FE401B02288A
:1024A000E6D90320CFE11B48036823F0F8036169F4
:1024B000F82292FAA2F2B2FA82F201FA02F213437D
:1024C0000360C1E7012393FAA3F3B3FA83F303F1A3
:1024D000845303F584139B0000221A60FFF79EFECD
:1024E0000546022393FAA3F30A4B1968022393FAD1
:1024F000A3F3B3FA83F303F01F03012202FA03F3F9
:102500000B42A1D0FFF78AFE401B0228E9D9032025
:1025100099E100BF0010024020819010012292FA40
:10252000A2F2B2FA82F2B74B13449B0000221A6067
:10253000FFF774FE0546022393FAA3F293FAA3F27F
:1025400093FAA3F2B04A516A93FAA3F3B3FA83F36E
:1025500003F01F03012202FA03F30B4206D0FFF738
:102560005DFE401B0228E6D903206CE1236813F0CE
:10257000040F00F0A980A44BDB6913F0805F20D129
:10258000A14BDA6942F08052DA61DB6903F08053D3
:102590000193019B01259D4B1B6813F4807F12D092
:1025A000E368012B23D073BB03F1804303F50433AD
:1025B0001A6A22F001021A621A6A22F004021A62EE
:1025C0001AE00025E7E7914A136843F4807313602B
:1025D000FFF724FE06468D4B1B6813F4807FDFD186
:1025E000FFF71CFE801B6428F5D903202BE1864AE7
:1025F000136A43F001031362E368002B3CD0FFF73A
:102600000DFE06462BE0052B09D07F4B1A6A22F0FF
:1026100001021A621A6A22F004021A62ECE77A4B8B
:102620001A6A42F004021A621A6A42F001021A623D
:10263000E2E7754B196A022393FAA3F3B3FA83F323
:1026400003F01F03012202FA03F319423BD1FFF703
:10265000E5FD801B41F28833984200F2EF800223AF
:1026600093FAA3F293FAA3F3002BE2D1022393FA95
:10267000A3F3654B596ADEE7FFF7D0FD064615E088
:10268000614B196A022393FAA3F3B3FA83F303F0BD
:102690001F03012202FA03F3194214D0FFF7BEFD13
:1026A000801B41F28833984200F2CA80022393FAD9
:1026B000A3F293FAA3F3002BE2D1022393FAA3F33C
:1026C000514B596ADEE7B5BBE369002B00F0BA80D5
:1026D0004D4A526802F00C02082A00F09980022B41
:1026E0002FD04FF0807393FAA3F3B3FA83F303F17F
:1026F000845303F584139B0000221A60FFF78EFDBC
:1027000004464FF0007393FAA3F33F4B19684FF060
:10271000007393FAA3F3B3FA83F303F01F030122C8
:1027200002FA03F319426BD0FFF778FD001B022871
:10273000E7D9032087E0344AD36923F08053D3617B
:10274000C2E74FF0807393FAA3F3B3FA83F303F174
:10275000845303F584139B0000221A60FFF75EFD8B
:1027600005464FF0007393FAA3F3274B19684FF017
:10277000007393FAA3F3B3FA83F303F01F03012268
:1027800002FA03F3194206D0FFF748FD401B022866
:10279000E7D9032057E01C494B6823F47413626A9D
:1027A000206A024313434B604FF0807393FAA3F304
:1027B000B3FA83F303F1845303F584139B000122DE
:1027C0001A60FFF72BFD04464FF0007393FAA3F352
:1027D0000D4B19684FF0007393FAA3F3B3FA83F328
:1027E00003F01F03012202FA03F3194206D1FFF797
:1027F00015FD001B0228E7D9032024E0002022E079
:10280000002020E020819010001002400070004065
:10281000012B1AD0104B5B6803F48031226A91427D
:1028200015D103F47013626A934212D100200AE0BA
:1028300001207047012006E0012004E0032002E0AF
:10284000032000E0002002B070BD0120FBE7012062
:10285000F9E70120F7E700BF00100240164B5B6864
:1028600003F00C02082A01D01448704703F47011D9
:102870004FF4701292FAA2F2B2FA82F221FA02F244
:102880000F49885C0C4AD26A02F00F020F2191FABC
:10289000A1F1B1FA81F1CA400A498A5C13F4803F80
:1028A00005D0064BB3FBF2F303FB00F07047064B79
:1028B00003FB00F0704700BF0010024000127A00D6
:1028C000A4500008B450000800093D00002800F0A2
:1028D000BE8070B50D460446614B1B6803F00703CC
:1028E0008B420BD25E4A136823F007030B4313603D
:1028F000136803F007038B4240F0AB80236813F0AA
:10290000020F06D0574A536823F0F003A1680B4327
:102910005360236813F0010F5AD06368012B2DD048
:10292000022B40D0022292FAA2F24E4A10680222F2
:1029300092FAA2F2B2FA82F202F01F02012101FA27
:1029400002F2104200F0878046494A6822F00302F2
:1029500013434B60FFF762FC0646424B5B6803F093
:102960000C036268B3EB820F32D0FFF757FC801B79
:1029700041F288339842F0D9032067E04FF40032E7
:1029800092FAA2F2374A10684FF4003292FAA2F299
:10299000B2FA82F202F01F02012101FA02F20242AF
:1029A000D2D1012052E04FF0007292FAA2F22D4AE9
:1029B00010684FF0007292FAA2F2B2FA82F202F0BC
:1029C0001F02012101FA02F21042BDD101203DE0B7
:1029D000234B1B6803F00703AB420AD9204A136854
:1029E00023F007032B431360136803F00703AB4284
:1029F00033D1236813F0040F06D01A4A536823F426
:102A0000E063E1680B435360236813F0080F07D0BD
:102A1000144A536823F46053216943EAC1035360A5
:102A2000FFF71CFF0F4B5B6803F0F003F02292FAF4
:102A3000A2F2B2FA82F2D3400B4AD35CD8400B4BDD
:102A400018600B4B1868FFF7A5FB002070BD012034
:102A500070470120FAE70120F8E70120F6E700BF00
:102A60000020024000100240C45000081400002062
:102A700010000020014B1868704700BF14000020B0
:102A800008B5FFF7F7FF074B5B6803F4E0634FF40B
:102A9000E06292FAA2F2B2FA82F2D340024AD35C26
:102AA000D84008BD00100240D450000808B5FFF718
:102AB000E1FF074B5B6803F460534FF4605292FAF6
:102AC000A2F2B2FA82F2D340024AD35CD84008BDE7
:102AD00000100240D4500008F0B583B004460368EB
:102AE00013F4803F44D05C4BDB6913F0805F6DD101
:102AF000594BDA6942F08052DA61DB6903F08053A6
:102B00000193019B0125554B1B6813F4807F5FD017
:102B1000514B1B6A13F4407321D0626802F4407277
:102B20009A421CD04C48016A21F440764FF480331D
:102B300093FAA3F2B2FA82F2494F3A4492004FF06C
:102B4000010CC2F800C093FAA3F3B3FA83F33B4439
:102B50009B0000221A60066211F0010F4CD13E4A20
:102B6000136A23F4407361680B431362002D69D12B
:102B7000236813F0010F06D0374A136B23F00303C9
:102B8000A1680B431363236813F0200F06D0324A69
:102B9000136B23F01003E1680B431363236813F0F6
:102BA000800F06D02C4AD36A23F4F87321690B43B3
:102BB000D362236813F4805F4BD0274A136B23F44E
:102BC000807361690B431363002043E000259AE79B
:102BD000224A136843F480731360FFF71FFB064615
:102BE0001E4B1B6813F4807F92D1FFF717FB801BED
:102BF0006428F5D903202DE0FFF710FB064614E00A
:102C0000154B196A022393FAA3F3B3FA83F303F083
:102C10001F03012202FA03F30B42A0D1FFF7FEFAD1
:102C2000801B41F28833984211D8022393FAA3F211
:102C300093FAA3F3002BE3D1022393FAA3F3064BF9
:102C4000596ADFE7D36923F08053D36190E703200B
:102C500000E0002003B0F0BD001002400070004012
:102C600000819010F0B583B0002362E085685E00BB
:102C70000324B44025EA0405CC68B4402C438460A6
:102C8000446824EA0C0C4C68C4F300149C4044EAE9
:102C90000C0444605EE0DD08083550F8256003F060
:102CA00007044FEA840C0F2404FA0CF426EA040EFD
:102CB0000C6904FA0CF444EA0E0440F8254060E084
:102CC000032400E0002404FA0EF42C430CF1020C5F
:102CD0004F4D45F82C404F4C2568D44325EA020659
:102CE0004F6817F4803F01D042EA0506494D2E6037
:102CF0006D6804EA05064F6817F4003F01D042EA08
:102D00000506444D6E60AD6804EA05064F6817F489
:102D1000801F01D042EA05063E4DAE60ED682C40B2
:102D20004E6816F4001F01D042EA0504394AD46007
:102D300001330A6832FA03F468D04FF0010C0CFA40
:102D400003FC1CEA0202F3D04C6804F00304013CCB
:102D5000012C8BD94C6804F00304032C0CD0C468FC
:102D60005D004FF0030C0CFA05FC24EA0C0C8C6897
:102D7000AC4044EA0C04C4604C6804F00304022C28
:102D800089D004684FEA430E4FF0030C0CFA0EFC96
:102D900024EA0C0C4C6804F0030404FA0EF444EA30
:102DA0000C0404604C6814F4403FC1D01A4CA5696F
:102DB00045F00105A561A46904F001040194019C9A
:102DC0004FEA930C0CF10205114C54F8255003F016
:102DD00003044FEA840E0F2404FA0EF425EA0405D6
:102DE000B0F1904F3FF46EAF0C4CA0420AD004F506
:102DF0008064A04208D004F58064A0423FF460AF34
:102E0000052460E701245EE702245CE703B0F0BD1F
:102E1000000001400004014000100240000400488E
:102E20000369194201D001207047002070470AB1A0
:102E30008161704781627047436901EA030221EAB8
:102E4000030141EA02418161704730B40124056CFD
:102E5000AC40C56B6C60046863604368102B05D0A0
:102E6000036899600368DA6030BC704703689A6051
:102E70000368D960F8E700000268054B1344054A6F
:102E8000A2FB03231B099B000364034BC36370472E
:102E9000F8FFFDBFCDCCCCCC0000024020B310B574
:102EA0000446022380F8213001680A6822F47F5228
:102EB00022F03002436880680343E06803432069DE
:102EC000034360690343A0690343E0690343134379
:102ED0000B602046FFF7D0FF0020A063012384F899
:102EE000213084F8200010BD0120704738B5044619
:102EF00090F82000012831D0012084F8200094F8B7
:102F00002100012804D0002384F82030022038BD9D
:102F1000022084F821000020A0632568286820F0A2
:102F2000010028602046FFF790FFE36A5BB122684A
:102F3000136843F00E0313602268136843F0010323
:102F400013600020E3E72268136843F00A0313606C
:102F50002268136823F004031360EDE70220D6E72C
:102F6000074AD36823F4E0631B041B0C000200F43F
:102F7000E060034343F0BF6343F40033D360704722
:102F800000ED00E000B5194BDB68C3F30223C3F189
:102F9000070CBCF1040F28BF4FF0040C03F1040E22
:102FA000BEF1060F18D9033B4FF0FF3E0EFA0CFCA2
:102FB00021EA0C0199400EFA03F322EA03031943B4
:102FC00000280BDB0901C9B200F1604000F5614047
:102FD00080F800135DF804FB0023E5E700F00F0024
:102FE0000901C9B2024B1954F4E700BF00ED00E03B
:102FF00014ED00E0002807DB00F01F024009012368
:103000009340024A42F82030704700BF00E100E0E0
:103010000138B0F1807F0BD24FF0E0235861054AB0
:10302000F02182F823100020986107221A6170476E
:103030000120704700ED00E030B4036A23F0010383
:103040000362036A4568826922F4803222F07302C7
:103050000C68224323F002038C682343194CA042DE
:103060000BD004F5A054A04207D004F58064A04220
:1030700003D004F58064A04205D123F00803CC6896
:10308000234323F004030F4CA0420BD004F5A054BB
:10309000A04207D004F58064A04203D004F5806408
:1030A000A04207D125F4407C4C6944EA0C0C8D69A0
:1030B00045EA0C05456082614A684263036230BCA0
:1030C000704700BF002C014030B4036A23F48073C2
:1030D0000362036A4468C26922F4803222F07302F8
:1030E0000D682A4323F400738D6843EA0523144DC9
:1030F000A8421DD0124DA8420BD005F5A055A842FC
:1031000007D005F58065A84203D005F58065A84283
:1031100007D124F440544D6944EA05148D6944EA0A
:1031200005144460C2614A68C263036230BC7047E0
:1031300023F40063CD6843EA052323F48063D9E7D1
:10314000002C014030B4036A23F480530362026A06
:103150004468C36923F0807323F4E6430D6843EAAF
:10316000052322F400528D6842EA05320D4DA84233
:103170000BD005F5A055A84207D005F58065A842FB
:1031800003D005F58065A84204D124F480444D693C
:1031900044EA85144460C3614B680364026230BC36
:1031A000704700BF002C014030B4036A23F4803321
:1031B0000362036A4468426D22F4803222F0700296
:1031C0000D682A4323F400338D6843EA05430D4D0F
:1031D000A8420BD005F5A055A84207D005F580659B
:1031E000A84203D005F58065A84204D124F48034B8
:1031F0004D6944EA0524446042654A688265036279
:1032000030BC7047002C014030B4036A23F48013B3
:103210000362026A4468436D23F0807323F4E04341
:103220000D6843EA052322F400128D6842EA055234
:103230000D4DA8420BD005F5A055A84207D005F5C5
:103240008065A84203D005F58065A84204D124F426
:1032500080244D6944EA8524446043654B68C36516
:10326000026230BC704700BF002C014010B4036AFA
:10327000046A24F001040462846924F0F00C4CEA2E
:10328000021223F00A030B43826103625DF8044BD0
:10329000704710B4046A24F0100404628469036A5D
:1032A00024F4704C4CEA023223F0A00343EA0113E9
:1032B000826103625DF8044B7047836823F07003FA
:1032C0000B4343F0070383607047000090F83D30E4
:1032D000DBB2012B2AD1022380F83D300268D3688B
:1032E00043F00103D3600368134A934210D0B3F153
:1032F000804F0DD0A2F59432934209D002F59E3250
:10330000934205D01A6842F001021A60002070470B
:1033100099680A4A0A40062A0AD0B2F5803F09D0C5
:103320001A6842F001021A600020704701207047BD
:103330000020704700207047002C0140070001006A
:103340007047704770477047704710B50446036870
:103350001A6912F0020F11D0DA6812F0020F0DD0C4
:103360006FF002021A610123037703689B6913F06F
:10337000030F79D0FFF7E6FF0023237723681A694C
:1033800012F0040F12D0DA6812F0040F0ED06FF0B2
:1033900004021A610223237723689B6913F4407F98
:1033A00068D02046FFF7CEFF0023237723681A69F1
:1033B00012F0080F12D0DA6812F0080F0ED06FF07A
:1033C00008021A61042323772368DB6913F0030FD3
:1033D00057D02046FFF7B6FF0023237723681A69EA
:1033E00012F0100F12D0DA6812F0100F0ED06FF03A
:1033F00010021A61082323772368DB6913F4407FE6
:1034000046D02046FFF79EFF0023237723681A69E2
:1034100012F0010F03D0DA6812F0010F3FD12368D8
:103420001A6912F0800F03D0DA6812F0800F3DD1D4
:1034300023681A6912F4807F03D0DA6812F0800FD3
:103440003BD123681A6912F0400F03D0DA6812F0FA
:10345000400F39D123681A6912F0200F03D0DA68BF
:1034600012F0200F37D110BDFFF76BFF2046FFF79A
:103470006AFF81E72046FFF764FF2046FFF763FFFE
:1034800092E72046FFF75DFF2046FFF75CFFA3E7CA
:103490002046FFF756FF2046FFF755FFB4E76FF0D1
:1034A00001021A612046FDF71BFDB8E76FF08002AC
:1034B0001A61204600F059FBBAE76FF480721A6176
:1034C000204600F053FBBCE76FF040021A61204633
:1034D000FFF73AFFBEE76FF020021A61204600F0C6
:1034E00043FBC0E70368224A904206D0B0F1804F08
:1034F00003D0A2F59432904203D123F070034A68BE
:1035000013431B4A904212D0B0F1804F0FD0A2F566
:10351000943290420BD002F59E32904207D002F5D1
:103520008062904203D002F58062904203D123F47E
:103530004073CA68134323F080034A69134303604E
:103540008B68C3620B688362094B98420BD003F50A
:10355000A053984207D003F58063984203D003F547
:103560008063984201D10B69036301234361704773
:10357000002C014060B310B5044690F83D3013B301
:10358000022384F83D30214651F8040BFFF7AAFFCF
:10359000012384F8483084F83E3084F83F3084F8C2
:1035A000403084F8413084F8423084F8433084F865
:1035B000443084F8453084F8463084F8473084F845
:1035C0003D30002010BD80F83C30FDF7B5FFD7E757
:1035D0000120704760B310B5044690F83D3013B336
:1035E000022384F83D30214651F8040BFFF77AFF9F
:1035F000012384F8483084F83E3084F83F3084F862
:10360000403084F8413084F8423084F8433084F804
:10361000443084F8453084F8463084F8473084F8E4
:103620003D30002010BD80F83C30FFF789FED7E721
:103630000120704730B4036A23F010030362036A69
:103640004468826922F0807222F4E6420D6842EA00
:10365000052223F020038D6843EA0513144DA84288
:103660001DD0134DA8420BD005F5A055A84207D098
:1036700005F58065A84203D005F58065A84207D10D
:1036800024F440644D6944EA85048D6944EA850464
:10369000446082614A688263036230BC704723F0F1
:1036A0008003CD6843EA051323F04003D9E700BF48
:1036B000002C014038B590F83C30012B00F095808B
:1036C00004460D46012380F83C30142A00F288801D
:1036D000DFE802F00B8686861F868686348686861D
:1036E000488686865D86868671000068FFF7A4FCA2
:1036F0002268936943F0080393612268936923F079
:10370000040393612268936929690B439361002044
:1037100067E00068FFF78EFF2268936943F4006357
:1037200093612268936923F48063936122689369AB
:10373000296943EA01239361002052E00068FFF702
:10374000C3FC2268D36943F00803D3612268D369BC
:1037500023F00403D3612268D36929690B43D36141
:1037600000203EE00068FFF7EDFC2268D36943F4D7
:103770000063D3612268D36923F48063D361226834
:10378000D369296943EA0123D361002029E0006855
:10379000FFF70AFD2268536D43F008035365226862
:1037A000536D23F0040353652268536D29690B435D
:1037B0005365002015E00068FFF726FD2268536D71
:1037C00043F4006353652268536D23F480635365AB
:1037D0002268536D296943EA01235365002000E004
:1037E0000120002384F83C3038BD0220FCE710B4EF
:1037F000846824F47F4C42EA03220A4342EA0C0222
:1038000082605DF8044B704790F83C30012B76D015
:1038100010B50446012380F83C30022380F83D3087
:1038200002689068374B034093600B68602B4CD064
:1038300029D8402B54D00CD9502B22D1CA684968C2
:103840002068FFF713FD50212068FFF736FD0020A8
:1038500005E0202B0DD009D9302B0AD001200123FF
:1038600084F83D30002384F83C3010BD0BB1102BA0
:1038700005D119462068FFF720FD0020EFE7012061
:10388000EDE70120EBE7B3F5805F34D0B3F5005FDF
:103890000CD1CB684A6889682068FFF7A8FF2268C6
:1038A000936843F4804393600020D8E7702B24D1C1
:1038B000CB684A6889682068FFF799FF2268936897
:1038C00043F0770393600020C9E7CA68496820681D
:1038D000FFF7DFFC60212068FFF7EFFC0020BEE768
:1038E000CA6849682068FFF7C1FC40212068FFF7DB
:1038F000E4FC0020B3E70020B1E70120AFE702209D
:10390000704700BF8800FEFF01F01F01012303FA8A
:1039100001FC036A23EA0C030362036A02FA01F161
:103920000B4303627047000010B5044608460029A7
:103930003BD194F83E30DBB2013B18BF0123002B92
:1039400040F0888000285BD1022384F83E300122B9
:1039500001462068FFF7D8FF2368414A93420BD005
:1039600002F5A052934207D002F58062934203D041
:1039700002F58062934203D15A6C42F400425A64C9
:103980002368374A934257D0B3F1804F54D0A2F501
:103990009432934250D002F59E3293424CD01A6832
:1039A00042F001021A60002055E004290CD00829D9
:1039B00011D00C2916D010291BD094F84330DBB25B
:1039C000013B18BF0123BAE794F83F30DBB2013B5B
:1039D00018BF0123B3E794F84030DBB2013B18BFB6
:1039E0000123ACE794F84130DBB2013B18BF01235F
:1039F000A5E794F84230DBB2013B18BF01239EE7F4
:103A0000042809D008280BD00C280DD010280FD07E
:103A1000022384F843309AE7022384F83F3096E784
:103A2000022384F8403092E7022384F841308EE785
:103A3000022384F842308AE799680A4A0A40062A33
:103A40000AD0B2F5803F09D01A6842F001021A602C
:103A5000002000E0012010BD0020FCE70020FAE774
:103A6000002C01400700010090F83C30012B33D0BE
:103A700030B4012380F83C30022380F83D300268E6
:103A800053689468154DAA4221D023F070030D6845
:103A90002B4353600368114A93420AD0B3F1804F1D
:103AA00007D0A2F59432934203D002F59E3293429E
:103AB00004D124F080048A6814439C60012380F8B8
:103AC0003D30002380F83C30184630BC704723F46A
:103AD00070034D682B43D8E702207047002C01404B
:103AE00090F83C30012B3BD010B4012380F83C30DF
:103AF000CB6823F440738A68134323F480634A68D5
:103B0000134323F400630A68134323F480530A69C0
:103B1000134323F400534A69134323F480438A6A0E
:103B2000134323F470238A6943EA024302680D4C6D
:103B3000A24207D05364002380F83C3018465DF859
:103B4000044B704723F470034C6A43EA045323F098
:103B50008073CC69234323F00073096A0B43E9E7C0
:103B600002207047002C01407047704770470000EA
:103B700010B5044683680269134342691343C2695E
:103B80001343016808684E4A024013430B602268E1
:103B9000536823F44053E1680B435360A269236ADE
:103BA0001A4321688B6823F4306313438B602368C6
:103BB000444A934214D0444A934227D002F580628B
:103BC00093421FD01023E069B0F5004F20D0082B9E
:103BD00070D8DFE803F04A60486F636F6F6F66006C
:103BE0003A4B1B6B03F00303032B09D8DFE803F008
:103BF0000204060C0023E6E70423E4E70823E2E7D7
:103C00001023E0E70023DEE70223DCE70023DAE706
:103C1000082B49D8DFE803F0051F2548224848480B
:103C20000900FEF72DFF002840D06268530803EB1F
:103C30004000B0FBF2F080B2A0F110024FF6EF733B
:103C40009A4235D820F00F03C0F34200184323688E
:103C5000D86000201BE0FEF729FFE4E7FEF7FEFD39
:103C6000E1E71B48E1E71A4802E0FEF709FF18B355
:103C7000636800EB5300B0FBF3F080B2A0F11002D8
:103C80004FF6EF739A4219D82368D86000200023BA
:103C90006366A36610BDFEF709FFE8E7FEF7DEFDE9
:103CA000E5E74FF40040E3E70120F0E70020EEE70E
:103CB0000120ECE70120EAE70020E8E70120E6E741
:103CC000F369FFEF0038014000440040001002405B
:103CD00000127A00436A13F0010F06D0026853689D
:103CE00023F40033816A0B435360436A13F0020FDD
:103CF00006D00268536823F48033C16A0B435360D3
:103D0000436A13F0040F06D00268536823F480233B
:103D1000016B0B435360436A13F0080F06D002682F
:103D2000536823F40043416B0B435360436A13F021
:103D3000100F06D00268936823F48053816B0B4305
:103D40009360436A13F0200F06D00268936823F44F
:103D50000053C16B0B439360436A13F0400F0AD0CA
:103D60000268536823F48013016C0B435360036CA7
:103D7000B3F5801F0BD0436A13F0800F06D00268A2
:103D8000536823F40023816C0B435360704702682F
:103D9000536823F4C003416C0B435360EBE72DE9F8
:103DA000F84305460F4616469946DDF820802C68F4
:103DB000E46937EA04030CBF4FF0010C4FF0000C2C
:103DC000B44553D1B8F1FF3FF1D0FEF727FAA0EB8D
:103DD000090040452DD8B8F1000F2AD02B681A6889
:103DE00012F0040FE3D0DA6912F4006FDFD04FF461
:103DF00000621A622A6852E8003F23F4D07342E856
:103E000000310029F6D12A6802F1080353E8003F87
:103E100023F00103083242E800310029F3D12023C6
:103E2000AB67EB67C5F88030002385F8743003205A
:103E30001DE02A6852E8003F23F4D07342E80031C5
:103E40000029F6D12A6802F1080353E8003F23F065
:103E50000103083242E800310029F3D12023AB6787
:103E6000EB67002385F87430032000E00020BDE8F4
:103E7000F8832DE9F04182B01E46836F202B56D186
:103E800004460D469046002955D0002A55D090F89A
:103E90007430012B53D0012380F874300023C0F814
:103EA000803021238367FEF7B9F90746A4F85080D4
:103EB000A4F85280A368B3F5805F05D04FF00008E6
:103EC000002384F8743014E0236913B14FF0000824
:103ED000F6E7A8460025F3E738F8023B2268C3F36B
:103EE00008031385B4F8522092B2013A92B2A4F8B2
:103EF0005220B4F852309BB273B100963B46002278
:103F000080212046FFF74BFFD8B9002DE4D023686D
:103F100015F8012B1A85E5E700963B460022402163
:103F20002046FFF73CFF70B92023A36700E0022082
:103F300002B0BDE8F0810120FAE70120F8E7022095
:103F4000F6E70320F4E70320F2E730B583B0044638
:103F50000023C0F88030FEF761F905462268126838
:103F600012F0080F0DD123681B6813F0040F16D14F
:103F70002023A367E3670020206684F8740003B061
:103F800030BD6FF07E430093034600224FF40011D2
:103F90002046FFF704FF0028E5D00320EFE76FF08D
:103FA0007E4300932B4600224FF480012046FFF70A
:103FB000F6FE0028DCD00320E1E768B310B5044624
:103FC000836F03B32423A3672268136823F00103DC
:103FD00013602046FFF7CCFD012813D0636ABBB9FC
:103FE0002268536823F4904353602268936823F057
:103FF0002A0393602268136843F00103136020468C
:10400000FFF7A3FF10BD80F87430FDF7A9FBD9E7D7
:104010002046FFF75FFEE3E701207047034AD2F82E
:10402000883043F47003C2F88830704700ED00E038
:1040300082B0064B5A6942F001025A615B6903F093
:1040400001030193019B02B0704700BF00100240C2
:10405000DFF834D00D480E490E4A002302E0D45850
:10406000C4500433C4188C42F9D30B4A0B4C0023C0
:1040700001E013600432A242FBD3FFF7CFFF00F050
:1040800011F8FCF795FFFEE700300020000000204B
:104090007C0000207C5100088000002040040020AB
:1040A000FEE7000070B50D4D0D4C641BA4100026FA
:1040B000A64209D10B4D0C4C00F0E4FF641BA41088
:1040C0000026A64205D170BD55F8043B984701363D
:1040D000EEE755F8043B98470136F2E774510008C3
:1040E00074510008745100087851000802440346D6
:1040F000934200D1704703F8011BF9E70FB40A4B54
:1041000013B51C6824B1A36913B9204600F066F802
:1041100005AB049AA1680193204600F0BDF902B0F6
:10412000BDE8104004B0704718000020002310B50F
:104130000446C0E90033C0E90433836081814366EB
:10414000C2818361194608225C30FFF7CFFF054B1F
:104150006362054BA362054BE362054B2462236354
:1041600010BD00BF414A0008634A00089B4A00088E
:10417000BF4A0008014900F0AFB800BF994D0008E0
:1041800070B568224D1E55430E4605F1740100F0CE
:10419000E5F8044640B10021C0E900160C30A060EB
:1041A00005F16802FFF7A2FF204670BD014800F04C
:1041B000B3B800BF2D040020014800F0AEB800BF26
:1041C0002D040020014800F0A7B800BF2E040020F5
:1041D000014800F0A2B800BF2E04002010B504462C
:1041E000FFF7F0FFA3691BB1BDE81040FFF7F0BF78
:1041F000C4E912332365134B134A1B68A262A3421E
:1042000004BF0123A361204600F020F8606020462F
:1042100000F01CF8A060204600F018F80022E060D2
:1042200004216068FFF782FFA06801220921FFF7DF
:104230007DFFE06802221221FFF778FF0123A361CE
:10424000D2E700BFDC50000875410008F8B507460A
:10425000FFF7ACFF1E4B1E68B36913B93046FFF77A
:10426000BDFF4836D6E90134013B03D533680BB3B3
:104270003668F7E7B4F90C50D5B9164BE36004F192
:104280005800656600F047F8FFF796FFC4E901554E
:10429000C4E904552560A5610822294604F15C00A3
:1042A000FFF724FFC4E90D55C4E912552046F8BDB7
:1042B0006834D9E704213846FFF762FF04463060CE
:1042C0000028D5D1FFF778FF0C233B60EEE700BF55
:1042D000DC5000080100FFFF2DE9F8430646884640
:1042E00000F148040027D4E90195B9F1010905D589
:1042F0002468002CF7D13846BDE8F883AB89012B40
:1043000007D9B5F90E30013303D029463046C047EE
:1043100007436835E9E770477047704770B50E4E40
:104320000C463168054611B900F07AFB3060214631
:10433000284600F075FB431C0AD0C41C24F003047B
:10434000A04207D0211A284600F06AFB013001D1B3
:104350004FF0FF34204670BD340400202DE9F041B9
:10436000CD1C25F0030508350C2D38BF0C25002D7C
:10437000074601DBA94205D90C233B6000263046E5
:10438000BDE8F0812E4E00F0BBFD33681C4634BB07
:1043900029463846FFF7C2FF431C04464DD1346816
:1043A0002646002E40D123683146384604EB0308E8
:1043B00000F036FB80453AD1216803356D1A25F0AF
:1043C000030508350C2D38BF0C2529463846FFF764
:1043D000A5FF01302BD023682B4423600EE0226818
:1043E000521B1ED40B2A16D96119A342256018BF8F
:1043F0005960636808BF316062514B60384604F110
:104400000B0600F083FD26F00706231DF21AB6D036
:104410009B1BA350B3E76268A3420CBF32605A6093
:10442000ECE723466468B2E734467668B9E70C23C4
:104430003B60384600F06AFDA1E72560DEE700BF7B
:10444000300400209368013B002B10B4936008DA1D
:104450009469A34201DB0A2903D15DF8044B00F003
:1044600033BB1368581C1060197008465DF8044B84
:104470007047F8B506460F461446D518AC4201D130
:10448000002007E014F8011B3A463046FFF7DAFF38
:10449000431CF3D1F8BD00002DE9F04F0D469DB04F
:1044A00014469846064618B183690BB9FFF796FE85
:1044B000894B9D421BD175686B6ED90705D4AB89BA
:1044C0009A0502D4A86DFFF727FFAB891B0701D51A
:1044D0002B69EBB92946304600F05AFBC0B16B6E30
:1044E000DC070ED54FF0FF301DB0BDE8F08F7B4BE1
:1044F0009D4201D1B568DFE7794B9D4208BFF56861
:10450000DAE7AB899805EDD4A86DFFF706FFE9E778
:104510000023099320238DF82930CDF80C80302317
:10452000DFF8C0818DF82A304FF0010923469A4602
:1045300013F8012B0AB1252AF9D1BAEB040B0BD0E1
:104540005B46224629463046FFF793FF013000F0D4
:10455000AA80099A5A4409929AF80030002B00F078
:10456000A28000234FF0FF32CDE905230AF1010AB2
:10457000049307938DF853301A935446052214F888
:10458000011B5848FBF724FE049AD8B9D10644BF52
:1045900020238DF85330130744BF2B238DF853305D
:1045A0009AF800302A2B15D0079A544600204FF075
:1045B0000A0C214611F8013B303B092B4ED9B0B112
:1045C000079214E0A0EB080309FA03F313430493E2
:1045D000A246D2E7039B191D1B680391002BBBBFAA
:1045E0005B4242F0020207930793B8BF049223781C
:1045F0002E2B0CD163782A2B35D1039B1A1D1B68F7
:104600000392002BB8BF4FF0FF3302340593DFF85D
:10461000E4A0217803225046FBF7DAFD40B14023A5
:10462000A0EB0A0003FA00F0049B03430134049357
:1046300014F8011B2C488DF828100622FBF7C8FD42
:1046400000283FD0294B1BBB039B073323F00703F4
:1046500008330393099B3B44099367E70CFB023241
:104660000C460120A5E700230134059319464FF0BD
:104670000A0C204610F8012B303A092A03D9002BE6
:10468000C5D00591C3E70CFB012104460123F0E7E7
:1046900003AB00932A46164B04A93046AFF30080C3
:1046A0000746781CD6D16B6ED90705D4AB899A051D
:1046B00002D4A86DFFF731FEAB895B063FF512AF60
:1046C000099811E703AB00932A46094B04A9304629
:1046D00000F080F8E4E700BF005100082051000816
:1046E000E0500008405100084A5100080000000056
:1046F00073440008465100082DE9F04716469946D4
:104700008A680B69DDF820809342B8BF1346336096
:1047100091F8432007460C460AB101333360236801
:10472000990642BF336802333360256815F00605E9
:1047300006D104F1190AE36832689B1AAB4226DC01
:1047400094F84320131E226818BF012392062BD42D
:1047500004F1430249463846C04701301ED0236861
:10476000E568326803F00603042B08BFAD1AA3689E
:1047700022690CBF25EAE57500259342C4BF9B1A48
:10478000ED1800261A34B5421AD1002008E00123A2
:10479000524649463846C047013003D14FF0FF30FA
:1047A000BDE8F0870135C6E7E1185A1C302081F8D2
:1047B0004300224494F8451082F843100233C7E7BF
:1047C0000123224649463846C0470130E6D001362B
:1047D000D9E700002DE9FF470F7E0C9D782F914609
:1047E00080460C469A4601F1430207D8622F0AD848
:1047F000002F00F0D880582F00F0A38004F142056C
:1048000084F842703AE0A7F16303152BF6D801A1B2
:1048100051F823F06D48000881480008FD47000862
:10482000FD470008FD470008FD47000881480008D3
:10483000FD470008FD470008FD470008FD47000848
:104840008D490008B14800086F490008FD4700087D
:10485000FD470008AF490008FD470008B1480008BF
:10486000FD470008FD470008774900082B681A1D1E
:104870001B682A6004F1420584F842300123A3E05A
:1048800020682968060601F104030AD50E682B602A
:10489000002E03DA2D23764284F843305E480A2343
:1048A00019E00E682B6010F0400F18BF36B2EFE72A
:1048B0002B682068191D2960010601D51E6802E0D9
:1048C0004606FBD51E8854486F2F0CBF08230A23C9
:1048D000002184F843106568A560002DA2BF2168FF
:1048E00021F0040121600EB9002D4DD01546B6FB14
:1048F000F3F103FB1167C75D05F8017D3746BB4245
:104900000E46F4D9082B0BD12368DE0708D523699E
:1049100061689942DEBF302305F8013C05F1FF359F
:10492000521B2261CDF800A04B4603AA2146404607
:10493000FFF7E2FE01304CD14FF0FF3004B0BDE88C
:10494000F087354881F845702968236851F8046B71
:1049500029601D0614D5DF0744BF43F02003236000
:104960001EB9236823F0200323601023B0E72368D7
:1049700043F0200323607823284884F84530E3E798
:10498000590648BFB6B2E6E71546BBE72B6826686E
:104990006169181D286035061B6801D5196002E0A1
:1049A0007006FBD51980002323611546BAE72B68F2
:1049B0001A1D2A601D68626800212846FBF708FC62
:1049C00008B1401B606063682361002384F84330B2
:1049D000A8E723692A4649464046D0470130ABD074
:1049E00023689B0713D4E068039B9842B8BF18461E
:1049F000A4E70123324649464046D04701309BD0C8
:104A00000135E36803995B1AAB42F2DCEBE7002562
:104A100004F11906F5E700BF515100086251000882
:104A200038B5064D0023044608462B6000F01CFBF9
:104A3000431C02D12B6803B1236038BD3804002029
:104A400010B50C46B1F90E1000F0B2FA0028ABBF59
:104A5000636DA3891B1823F48053ACBF6365A381E6
:104A600010BD2DE9F0411F468B89DB0505460C463C
:104A7000164605D5B1F90E100223002200F0C8F940
:104A8000A389B4F90E1023F48053A38132463B4628
:104A90002846BDE8F04100F069B810B50C46B1F900
:104AA0000E1000F0B5F9431CA38915BF606523F40F
:104AB000805343F48053A38118BFA38110BDB1F983
:104AC0000E1000F0D3B80000F8B50E4614460546A7
:104AD00018B183690BB9FFF781FB214B9C422BD1A5
:104AE0006C68A369A360A3891A072FD523696BB3E8
:104AF00023692068C01A6369F6B28342374604DC32
:104B00002146284600F048F930BBA368013BA3606A
:104B100023685A1C22601E7063690130834204D0EE
:104B2000A389DB0706D50A2E04D12146284600F0CA
:104B300033F988B93846F8BD0A4B9C4201D1AC68BC
:104B4000CFE7094B9C4208BFEC68CAE721462846DC
:104B500000F01EF80028CBD04FF0FF37EAE700BF87
:104B60000051000820510008E050000838B5074DFA
:104B700004460846114600222A601A46FCF7C8F986
:104B8000431C02D12B6803B1236038BD38040020D8
:104B9000324B70B51D6806460C4625B1AB6913B99A
:104BA0002846FFF71BFB2E4B9C420FD16C68A38954
:104BB000B4F90C2019072CD4DD0611D40923336075
:104BC00042F04003A3814FF0FF303EE0254B9C4272
:104BD00001D1AC68EBE7244B9C4208BFEC68E6E7E8
:104BE000580712D5616B41B104F14403994202D0D8
:104BF000304600F091F900236363A38923F0240376
:104C0000A3810023636023692360A38943F0080321
:104C1000A38123694BB9A38903F42073B3F5007F03
:104C200003D02146304600F02BF9A089B4F90C20BE
:104C300010F001030AD00023A36063695B42A36103
:104C4000236943B910F08000BAD170BD810758BF05
:104C50006369A360F4E70020F7E700BF18000020B5
:104C60000051000820510008E050000838B5064DFA
:104C70000023044608462B6000F0CEF9431C02D105
:104C80002B6803B1236038BD380400208A892DE9E0
:104C9000F041054610070C4658D44B68002B05DC44
:104CA0000B6C002B02DC0020BDE8F081E66A002ED0
:104CB000F9D0002312F480522F682B6032D0606D3F
:104CC000A3895A0705D56368C01A636B0BB1236CBF
:104CD000C01A00230246E66A216A2846B047431CF0
:104CE000A38906D129681D292CD82A4ACA40D6078B
:104CF00028D500226260D9042269226004D5421CB2
:104D000001D12B6803B96065616B2F600029CAD09F
:104D100004F14403994202D0284600F0FDF8002037
:104D20006063C1E7216A01232846B047411CC7D10F
:104D30002B68002BC4D01D2B01D0162B01D12F6066
:104D4000B1E7A38943F04003A381ADE70F69002FCA
:104D5000A9D093070E6808BF4B690F6018BF0023E6
:104D6000A6EB07088B60B8F1000F9CDD216AA66AEC
:104D700043463A462846B047002806DCA38943F05C
:104D80004003A3814FF0FF308EE70744A8EB0008F3
:104D9000E9E700BF0100402038B50B6905460C4625
:104DA00013B90025284638BD18B183690BB9FFF740
:104DB00015FA144B9C421BD16C68B4F90C30002BD3
:104DC000EFD0626ED00704D4990502D4A06DFFF72E
:104DD000A3FA28462146FFF759FF636EDA07054616
:104DE000E0D4A3899B05DDD4A06DFFF796FAD9E73F
:104DF000054B9C4201D1AC68DFE7044B9C4208BFE5
:104E0000EC68DAE70051000820510008E050000883
:104E100038B5074D04460846114600222A601A4656
:104E200000F012F9431C02D12B6803B1236038BD96
:104E30003804002070B50E46B1F90E10002996B066
:104E400014461D4608DAB6F90C3000222A601A060C
:104E500010D44FF480630EE06A4600F0BBF80028DF
:104E6000F1DB019A02F47042A2F500535A425A4112
:104E70002A60EEE740230020236016B070BD0000DA
:104E80008B8973B59D0706460C4607D504F1470389
:104E9000236023610123636102B070BD01AB6A46E8
:104EA000FFF7C8FF009905463046FFF757FA48B9A3
:104EB000B4F90C309A05EFD423F0030343F0020356
:104EC000A381E3E70D4BB362A389206043F0800325
:104ED000A381009B6361019B20615BB1B4F90E105B
:104EE000304600F089F828B1A38923F0030343F08A
:104EF0000103A381A0890543A581CDE77541000881
:104F00000148FFF709BA00BF2C0400200148FFF751
:104F100004BA00BF2C04002037B5002944D051F852
:104F2000043C0190002BA1F10404B8BFE418FFF782
:104F3000E7FF1E4A0198136833B96360146003B039
:104F4000BDE83040FFF7E2BFA34208D925686119E8
:104F50008B4201BF19685B6849192160EDE71A4669
:104F60005B680BB1A342FAD911685518A5420BD161
:104F7000246821445418A3421160E0D11C685B6886
:104F8000536021441160DAE702D90C230360D6E7AD
:104F9000256861198B4204BF19685B68636004BFB0
:104FA000491921605460CAE703B030BD30040020C5
:104FB00038B5074D04460846114600222A601A46B5
:104FC00000F04AF8431C02D12B6803B1236038BDBE
:104FD0003804002038B5074D002304460846114622
:104FE0002B6000F021F8431C02D12B6803B1236031
:104FF00038BD00BF3804002038B5064D00230446F4
:1050000008462B6000F018F8431C02D12B6803B14E
:10501000236038BD38040020024B58221A604FF03C
:10502000FF30704738040020024B58221A604FF0BE
:10503000FF30704738040020024B58221A600020CD
:10504000704700BF38040020024B58221A604FF00E
:10505000FF30704738040020024B58221A604FF08E
:10506000FF30704738040020044A05491368002BBC
:1050700008BF0B4618441060184670473C040020D7
:1050800040040020F8B500BFF8BC08BC9E4670473D
:0C509000F8B500BFF8BC08BC9E46704795
:10509C0025640D0A00000000020304050607080938
:1050AC000A0B0C0D0E0F1010010203040506070865
:1050BC00090A0B0C0D0E0F10000000000000000080
:1050CC0001020304060708090000000001020304A2
:1050DC001C00002000000000000000000000000088
:1050EC0000000000000000000000000000000000B4
:1050FC0000000000000000000000000000000000A4
:10510C000000000000000000000000000000000093
:10511C000000000000000000000000000000000083
:10512C000000000000000000000000000000000073
:10513C0000000000232D302B2000686C4C006566AD
:10514C0067454647003031323334353637383941CC
:10515C0042434445460030313233343536373839E2
:08516C006162636465660000E6
:04517400B501000879
:045178009101000899
:10517C001C250000010000000100000001000000DF
:10518C001000000000127A001C000020000000003B
:10519C000051000820510008E050000800000000F9
:1051AC0000000000000000000000000000000000F3
:1051BC0000000000000000000000000000000000E3
:1051CC0000000000000000000000000000000000D3
:1051DC0000000000000000000000000000000000C3
:0C51EC00000000000000000000000000B7
:04000005080040515E
:00000001FF
